:020000040000fa
:080000000001040000000000f3
:020000040000fa
:100200000ff0200080ff20000001880000000000a7
:10021000050007000c000700742c0200000000001d
:100220000040da000000fe004440a9000054200015
:100230000000e0000300320000002000a001880060
:100240004440a80000000600803c2300010020007c
:100250001600370062004000e080480091018800ed
:100260009001ba0062004000e080480091018800df
:100270009002ba0062004000e08048000002eb00fb
:100280006028e10005003a008301e900070033001f
:10029000038009000059eb00040037006128e100e9
:1002a000010032000082eb00050007009101880088
:1002b0001001ba000200e000e6ff3a00000005006d
:1002c000910188008002780062004000e0804800d0
:1002d0003559ba008301e900080032002559ba00f7
:1002e0008301e900050032000400e000f4ff320061
:1002f00015d9ba008301e900f1ff3a0000000600b9
:10030000040037000204e00001003a00000005008c
:100310000000e80010417800814f5100f9ff3a00d9
:100320000000060080007800010037000000e800af
:100330001004e000fdff3a0001005000000006003c
:100340008001780000017800314078000059780081
:100350000004e000fcff3a00030078000000060003
:100360008001780002003700b15978000201e900ed
:100370000200e000fcff3a00000006000b0037001e
:100380001042780091417800834f520004003200ff
:100390000081eb0007003900120020000500370043
:1003a0000000e8008100e8000201e9000200e0002e
:1003b000f3ff3a000200780000000600811f780079
:1003c0000100e00002003d0060001000e080180025
:1003d0000300e00002003d0060011100e08119000f
:1003e000050007004f00e00002003b006000100025
:1003f000e080180000000600110007000400be00a5
:1004000000000600839f68000100e00002003d003c
:1004100060001000e08018000300e00002003d00d2
:1004200060011100e0811900050007004f00e000a5
:1004300002003b0060001000e08018000000060091
:100440006022b800060220000000d0008180d200a7
:100450000482d2008582d2000000a0000202520075
:1004600083825a00030031000202420083824a0064
:100470000000a1000603e900f3ff3a0000000600b7
:100480000de2a9008d20a9008d40a9008520a900ba
:100490008540a90000000600a210880060108800b6
:1004a000711088000000060017e2a9008f00a90063
:1004b0008f20a9008700a9008720a900000006005e
:1004c000f2108800b0108800c110880000000600fb
:1004d0000ec2bf0061006000000006000cc2bf0039
:1004e00066406000e64f500002003a009010800025
:1004f0000000060090108000f00fb200000006001f
:1005000019c2bf000004a2006100600000000600e4
:100510008000780016c2bf0066406000e64f5000c1
:1005200001003200f10fb200d11088000000060077
:1005300018c2bf00610060000000060016c2bf00c4
:1005400066406000e64f500002003a00e010800074
:1005500000000600e0108000f00fb200000006006e
:100560000fc2bf000004a20061006000000006008e
:10057000800078000cc2bf0066406000e64f50006b
:1005800001003200f10fb200811088000000060067
:10059000000178008100e9000000eb00e18f4000dd
:1005a000070032008041eb00010041000000e8003c
:1005b000b2c16900800f5100fdff3a000380fb00cb
:1005c00000000600889fbe008a1f78000004eb0030
:1005d0008104e900cac2b300890f5400060032004a
:1005e000904f150007003a000000e8000804e800fa
:1005f000890f5400faff3a004f0578004f04be00ff
:1006000000000600c10220003dff07000000e000de
:10061000f9ff32000000e8000804e800f4ff3700aa
:100620008000780010419000c0c2b300804f51009c
:10063000080032001100fb006a00b9000042b0005f
:100640000040410002cdb300024040000080fb00aa
:100650000000060000cdb300114040000080fb0008
:1006600000000600fbff37009000fb006a09b9009c
:1006700004c2b300844041001040900080c040009c
:1006800000cdb30000c040000080fb000000060069
:100690002f6ced008720a900a0618000b080fb00d6
:1006a000d1108800a06188008f20a80000000600fb
:1006b000422ced008540a900b0618000b080fb00b5
:1006c00081108800b06188008d40a80000000600fd
:1006d0000000e0000b0032008000eb0042ce200062
:1006e0000300200061015100e0815900e10f410049
:1006f000e08f4900fbff3a008100e800810f5000c5
:10070000f6ff3a0000000600c9c2bf004300de0049
:10071000e1006000c9c2bf000048a3000100320030
:100720000114a000e0c2bf000068a3000300320073
:10073000706bef000180fb000000060010c0b300ea
:1007400070ebb7000180fb0000000600fbff3700e4
:100750000000fe0000000600889fbe0080047800b4
:10076000d5cbbf0078062000e34f500007003200d1
:1007700038032000e24f50000400320098012000ae
:10078000e14f500001003200080120008d40a90017
:100790008d20a9003aff070008017800d17d2f00c5
:1007a00000b02d003cff07000ec2bf000018a300e0
:1007b000010032000e22a900f0f32f000e22b60035
:1007c0002c6cef000900e000010032008d20a80031
:1007d0004f04be0000000600889fbe008a1f7800fc
:1007e000c0e92000d1e92000040009003158780058
:1007f000c0e920009080fb009dcebf004800dd00d6
:1008000001027000e1e92000914078008180fb0046
:100810009fcebf004800dd00810270000aea200080
:100820001a4578008c60a9006062800071628000c7
:1008300022628000336280000200500083805800f2
:100840000404400085844800f0bf25006152200068
:10085000800f5400818f5c000400340000402a00a7
:1008600091ad2f0008044000898448006862880028
:10087000796288000a04e000090032004206200084
:10088000030020000800be00ccfe070042c6b300f3
:10089000004151000200780021ecb7002d6cef0000
:1008a000823e2000030020000800be00c3fe0700b7
:1008b000823e200000015100026288008c60a80086
:1008c0000a04e00002003200cc6bef00c96bef00bd
:1008d0004f0578004f04be0000000600889fbe0050
:1008e0008a1f7800c0e92000d1e920000400090037
:1008f00031587800c0e920009080fb009dcebf00f9
:100900004800dd0001017000e1e92000914078001d
:100910008180fb009fcebf004800dd008101700098
:100920000aea20001a4578008c60a9006062800005
:1009300071628000e00f5100e08f590028003500ff
:100940000004410081844900f0bf2500615220006d
:10095000800f5400818f5c001c003e00686288009c
:10096000796288000a04e000090032004206200093
:10097000030020000800be009ffe070042c6b3002f
:10098000004151000200780021ecb7002d6cef000f
:10099000823e2000030020000800be0096fe0700f3
:1009a000823e200000015100026288008c60a80095
:1009b0000a04e00002003200cc6bef00c96bef00cc
:1009c0004f0578004f04be000000060000402a00da
:1009d00091ad2f000804400089844800dfff3700f4
:1009e00060011100e0811900820f5000838f5800d0
:1009f000030039000204500083845800d7ff3700f9
:100a0000000151008181590000c025006152200081
:100a10000204500083845800d0ff3700c0e9200052
:100a2000d1e9200004000900315878008c60a90049
:100a300060628000716280008c60a8002462800087
:100a400035628000c0e920009080fb009dcebf0091
:100a50004800dd0001017000e1e9200091407800cc
:100a60008180fb009fcebf004800dd008101700047
:100a70000202520083825a00040078005cebb70047
:100a80004820de005debb700050078005eebb700a4
:100a90004828de005febb7000040eb0060ebb700da
:100aa00061ebb70010c0b300dbebb700000006003d
:100ab0000000000000000000000000000000060030
:100ac0008000780031417800114878008248780031
:100ad00000000600881f7800dd6bef00843e2000d8
:100ae000626080000411b800706080000480b9006a
:100af000830140008c60a9001e6cef001eccbf007b
:100b00001fecb7004062800051628000000051007d
:100b1000818059003300330062628000736280007c
:100b20000200400083804800606288007162880093
:100b30000001be00f0bf250061522000800f51006f
:100b4000818f59001e003e0028bd20001844780007
:100b50000804e0000a0032006062800071628000d8
:100b6000420620000300200023fe070042c6b30017
:100b7000004151000200780021ecb7002d6cef001d
:100b80006062800071628000823e200003002000cd
:100b900019fe0700823e2000000151000262880019
:100ba0008c60a8000804e00003003200d26bef0064
:100bb000cc6bef00c96bef004f047800000006001b
:100bc00000402a0091ad2f006262800073628000b5
:100bd00002004000838048006062880071628800e3
:100be000d9ff370060021000e082180060628000c8
:100bf00071628000800f5200818f5a0007003e0012
:100c0000606280007162800004005000858058009e
:100c10006062880071628800cbff370062628000ea
:100c2000736280000201520083815a0000c02500d7
:100c300061522000020050008380580060628800ea
:100c400071628800c0ff3700889fbe008a1f78004d
:100c50009ad62000a10220000a007800a8fd070013
:100c6000000478000000e0003e00320080047800bc
:100c7000805ceb000a007800aafd0700e10f50003d
:100c8000440036000000e900e10f40002d00320072
:100c90008a0078000041eb000a0040000000e800f4
:100ca00031416900810f5000fdff3a000280fb00d6
:100cb0004400de006f406000e94f500009003e0034
:100cc0000043b0008880e8008001eb00994f50009d
:100cd00009003200030078004f0578004f04be0081
:100ce000000006007043b0008880e8008001eb003f
:100cf000994f5000f7ff3a006f406100e94f5000f4
:100d000016003e000043b00013002000914f500039
:100d1000f0ff3200902a2b00c1e6200012000900eb
:100d2000b05878003001b10010c0b300d9ebb70063
:100d3000000020004f0578004f04be0000000600b0
:100d4000e8ff37000041eb00024078006f40600090
:100d5000e94f5000daff3600e2ff37007043b00081
:100d6000e9ff370090282b00c1e620000e000900a3
:100d7000b0587800f000b10010c0b300d9ebb70054
:100d8000080078004f0578004f04be000000060000
:100d9000d4ff370080292b00c1e620001000090095
:100da000b05878001001b10010c0b300d9ebb70003
:100db000000020004f0578004f04be000000060030
:100dc000c8ff37000042780093bb200093417800b1
:100dd0000304e0001000320024ccbf000081fb00bf
:100de00081d6200004f178000040e80024ecb70030
:100df0008340e90001007800b9ebb7000000eb0088
:100e00000d003a008000fd00b6ebb700b7ebb7006d
:100e10008000fd0010000500b74be20007003a001b
:100e200000c4b300804f52001a0032000300780063
:100e3000b6ebb7000000eb000000060041c2200046
:100e4000914078000104e00009003a0050c4b3006a
:100e5000804f52001800320063405000804f520013
:100e60001500320001007800b7ebb7000000050064
:100e7000f0c9b30000404200e14f500018003600b6
:100e80008001fd0024ecb700b7ebb7008001fd0046
:100e900000000500b64be2000e0032008001fd00ac
:100ea000b6ebb70024ecb7008001fd0010c0b30022
:100eb000b7ebb7000000050024ccbf000081fb00a9
:100ec00081d6200004f178000040e80024ecb7004f
:100ed0000000050010c0b300b6ebb700000005002d
:100ee00024ccbf000081fb0081d6200004f17800f3
:100ef0000040e80024ecb70050c4b300684de300a4
:100f00000500320060c5b300b9ebb70000c0e800cf
:100f1000b8ebb700000005000040e800b9ebb700ef
:100f200000c0e800b8ebb700000005000040eb008f
:100f300076ebb7007aebb7007bebb7002eecb7008f
:100f400040ce2000c05b88000000060002c52000e3
:100f5000764be20001003a00c2cd2000c0ed200037
:100f600003000900305978004200b1007bcbbf007c
:100f70008081fb000300e80080007800f10fb200e0
:100f8000414198004800de005041980070c6b3000f
:100f9000604198007a404000704198007acbbf00d1
:100fa000014068007aebb700d24090000140680031
:100fb0007aebb700e2409000014068007aebb7009e
:100fc000f2409000014068007aebb70083004100d6
:100fd0008048980092618800764be2000d00320054
:100fe000766bef0040ce2000c05b88007b6bef008b
:100ff0007a6bef00d1cbbf00030032000040e90064
:10100000d1ebb70002003a0069c041002eecb700f6
:101010000000060010c0b30076ebb70080c52000ca
:10102000c05b8800f1ff3700889fbe000004be004f
:101030008f20a9008f00a9001bfd0700f20c2000e3
:10104000002c2100800f54000100320072062000a5
:10105000d17d2f0000f02d0019fd070018c2bf0040
:101060000018a300010032001822a900f0f32f009d
:101070001822b600226cef0022ccbf0023ecb70090
:101080000900e000010032008f00a8004f04be00fc
:1010900000000600809fbe00116280000100e00099
:1010a00008003200b0618000b080fb008110880031
:1010b000b0618800422ced008540a9004f00be00c1
:1010c000004006002e4ce20005003a008d40a900c9
:1010d0008540a9004f00be0000400600f9ff370020
:1010e0002eccbf000080fb00106288009061800061
:1010f000b06188008000fd002eecb7008000fd008c
:10110000b080fb0081108800b0618800422ced00a7
:101110008540a9004f00be0000400600e9ff3700ef
:10112000809fbe002f4ce20008003200a0618000ca
:10113000b080fb00d1108800a06188002f6ced000a
:101140008720a9004f00be00004006008f20a900a4
:101150008720a9004f00be0000400600fbff3700bb
:10116000809fbe00829fbe00841f78000ec2bf0019
:101170000018a300010032000e22a9000ec2bf0019
:101180000008a3000b0032000ec2bf000018a3002d
:10119000010032000e22a9000ec2bf000028a300e9
:1011a00009003200901080000ec2bf000008a300aa
:1011b000f5ff3a008520a9004f0278004f01be00dc
:1011c0004f00be00004006009310800003417800ed
:1011d000c1c22000914078000104e0000b003a00f9
:1011e000e2cf5100e5ff3a00c0e9200080618800ad
:1011f0008000fd0027ecb70028ecb7008000fd0060
:1012000010c0b3002cecb700dcff37002cccbf00c3
:10121000e14f5000160032002cccbf00e24f5000ce
:10122000d6ff3a002bccbf00e24f5000030036003f
:101230000340780028ccb60028ecb700806180001d
:1012400003587800806188002b6ced00b4c2200048
:10125000144278000404e000c8ff3a00e34f510054
:1012600036003200040078002cecb700c3ff3700d2
:101270000340780028ccb60028ecb70080618000dd
:10128000035878008061880030c4b30080cf5100db
:101290001c00320040c5b30080cf51000e00320068
:1012a0007040500080cf51000b00320040c6b300a8
:1012b00080cf51001a00320020c0b3002becb700e1
:1012c000801f78002bccbf002aecb7004f007800bd
:1012d0002cecb700a9ff370070c0b3002becb700af
:1012e0002bccbf002aecb70020c0b3002cecb70019
:1012f0006062800071628000206288003162880034
:101300009eff370000c1b3002becb7002bccbf0011
:101310002aecb70020c0b3002cecb70097ff3700d1
:1013200070c0b3002becb7002bccbf002aecb70089
:1013300020c0b3002cecb70090ff37002accbf00d0
:1013400082c22000124178000080fb00b1e9200039
:1013500001004000904f11000500320004007800a9
:101360002cecb70010c0b30025ecb70083ff3700aa
:10137000030078002cecb70010c0b30026ecb700d7
:101380000400780025ecb7007cff3700809fbe008a
:10139000829fbe0018c2bf000018a30001003200e7
:1013a0001822a90018c2bf000008a3000b003200d9
:1013b00018c2bf000018a300010032001822a900c3
:1013c00018c2bf00e441600008003200e010800055
:1013d00018c2bf000008a300f5ff3a008700a9006b
:1013e0004f01be004f00be000040060023ccbf00ee
:1013f0000080fb00e2108000c1eb200002f07800ca
:10140000236cec0023ccbf00ff4f5000e5ff3600fb
:101410000300780023ecb700e2ff3700294ce2001c
:1014200007003200402ced00400ce2001a003200b0
:1014300001628000301f2000808f50001a003600ab
:10144000216ced00214ce20004003a0020ccbf00ea
:1014500021ecb70010c0b3002decb7006062800033
:101460007162800061004000e08048006062880096
:10147000716288000001be00f0bf250061522000ab
:10148000800f5100818f5900020036004c2cef0074
:101490004e2cef0000000600803e20000062880015
:1014a000e202a800e6ff3700e202a900e4ff3700ed
:1014b000889fbe008a9fbe008c9fbe00c64be20084
:1014c000130032004c5f80005d5f8000fa5e800098
:1014d0008044eb00cbbe20000984fb004244dd00c9
:1014e0000b0444000c01be001800be00c5fb070041
:1014f000001d7800000ceb00381478008944e800e7
:10150000c6cbbf00004ce100f3ff3a00fa5e880052
:101510004f06be004f05be004f04be00000006008f
:101520007ecbbf00020032000040e9007eebb70036
:101530002c4ce200070032002cccbf00e34f5000df
:1015400004003200276cec0027ccbf00ee4f5000a7
:101550000a003e00144ce200070032003a2cec0076
:10156000d1618000f04a2000808f500002003600d8
:1015700010c0b300d8ebb700000006002c6cef00e1
:10158000c02b2b00c1e6200012000900b0587800e3
:101590003001b10010c0b300d9ebb700edff370048
:1015a000dc4be2005f00320080802000005f88009a
:1015b000e0812000f05e88008c60a90060628000fd
:1015c00071628000035f8000c04198004801de0026
:1015d000d2419800e14198004808de00f0419800af
:1015e0004062800051628000035f80008049980063
:1015f0004801de0092499800a14998004808de00a1
:10160000b04998008c60a800005f8000c1bb20003a
:101610009140780031509800005f8000b1bb2000fd
:101620009140780041509800005f8000a1bb2000ed
:101630009140780051509800005f8000c1c02000a8
:101640009140780041489800d1c020009140780036
:1016500051489800e1c0200091407800614898000e
:10166000f1c020009140780071489800005f800030
:10167000e1bb20009140780021509800005f80007d
:1016800021b720009140780011509800005f800041
:10169000d1bc20009140780001509800005f80008c
:1016a00001c12000914078000148780011c120005c
:1016b000914078001140980021c1200091407800ad
:1016c0002140980031c120009140780031409800bd
:1016d000b0bc200011c0b30090cf10001000360045
:1016e000ec2bef00ee2bef00f02bef00f22bef00d6
:1016f000f42bef00f62bef00f82bef00fa2bef00a6
:10170000fc2bef00fe2bef00002cef00022cef0073
:10171000042cef00062cef00082cef000a2cef0041
:1017200000000600609b2000005f8800c09c200035
:10173000f05e8800a0ff37008d20a9008d40a90031
:101740004201200040ce2000010020006100500036
:10175000e0805800e10f4000e08f4800fbff3a00b6
:101760000201e900f7ff3a00d00020008010880055
:101770004206200040ce2000010020006100500001
:10178000e0805800e10f4000e08f4800fbff3a0086
:101790000201e900f7ff3a000ec2bf000018a300e3
:1017a000010032000e22a9000ec2bf000008a300f3
:1017b0000200320090108000fbff3700a0052000df
:1017c000801088004206200040ce2000010020004a
:1017d00061005000e0805800e10f4000e08f4800b9
:1017e000fbff3a000201e900f7ff3a000ec2bf001a
:1017f0000008a3000400320091108000a0c5b300cf
:1018000080cf5000090032008000eb000ec2bf0004
:101810000018a300010032000e22a9008d20a800ac
:101820008d40a8000100780000000600d0002000d4
:10183000801088004206200040ce200001002000d9
:1018400061005000e0805800e10f4000e08f480048
:10185000fbff3a000201e900f7ff3a001004200004
:101860008010880040ce2000010020006100500060
:10187000e0805800e10f4000e08f4800fbff3a0095
:101880000201e800f40f5100f6ff3a004005200085
:101890008010880040ce2000010020006100500030
:1018a000e0805800e10f4000e08f4800fbff3a0065
:1018b0000201e900f7ff3a001004200080108800c0
:1018c0004201200040ce20000100200061005000b5
:1018d000e0805800e10f4000e08f4800fbff3a0035
:1018e0000201e900f7ff3a00d000200080108800d4
:1018f0004201200040ce2000010020006100500085
:10190000e0805800e10f4000e08f4800fbff3a0004
:101910000201e900f7ff3a0011002000bbff370089
:1019200020b82000f12c2b0022b820000e00090066
:1019300031597800f100b100a061880079fa070000
:101940002fecb7002f6ced008720a90082cbbf00e1
:101950000080fb00d010880030b82000a061880013
:101960008f20a8000000060000c4b30082ebb7007f
:1019700083ebb7006340400084ebb70090c6b30030
:1019800085ebb70010c0b30086ebb70040b820006d
:101990008040eb0072b82000b0c06800800f51009a
:1019a000fdff3a000100780087ebb700d0c0b3001c
:1019b00088ebb700a0c0b30089ebb70080c0b300cc
:1019c0002fecb7002f6ced008720a90082cbbf0061
:1019d0000080fb00d010880030b82000a061880093
:1019e0008f20a8000000060000c4b30082ebb700ff
:1019f00083ebb7006340400084ebb70060c6b300e0
:101a000085ebb70040b820008040eb0062b82000b2
:101a1000b0c06800800f5100fdff3a00010078005f
:101a200086ebb700d0c0b30087ebb700a0c0b3000f
:101a300088ebb70070c0b3002fecb7002f6ced003f
:101a40008720a90082cbbf000080fb00d010880057
:101a500030b82000a06188008f20a8000000060098
:101a60000141780001c4b3008000fd0082ebb700a3
:101a700083ebb7008000fd0084ebb70081c0e80075
:101a8000814f50001b00320010c6b30085ebb70039
:101a90000200780086ebb70040b820008040eb00e1
:101aa00072b82000b0c06800800f5100fdff3a00fe
:101ab0000100780087ebb700d0c0b30088ebb70017
:101ac000a0c0b30089ebb70080c0b3002fecb70013
:101ad0002f6ced008720a90082cbbf000080fb00a7
:101ae000d010880030b82000a06188008f20a800a6
:101af0000000060020c6b30085ebb70002007800a6
:101b000086ebb70040b820008040eb0072b82000a0
:101b1000e4ff370080407800e02d2b0022b8200041
:101b200007000900305978008000b100e3cf500071
:101b30003100320018003600e5cf50006f0032004f
:101b400042003100e02f2b0091b820000500090071
:101b5000b05878006000b100d0c0b3008eebb70081
:101b6000a0c0b3008febb700906bef00e0c0b300f4
:101b70002fecb7002f6ced008720a90082cbbf00af
:101b80000080fb00d010880030b82000a0618800e1
:101b90008f20a80000000600e1cf50006c0032004a
:101ba00041003600202f2b0091b8200005000900cd
:101bb000b05878006000b100d0c0b3008eebb70021
:101bc000a0c0b3008febb700906bef00e0c0b30094
:101bd0002fecb7002f6ced008720a90082cbbf004f
:101be0000080fb00d010880030b82000a061880081
:101bf0008f20a800e7ff3700802f2b0092b820002d
:101c000005000900305978006000b100d0c0b30071
:101c10008eebb700a0c0b3008febb700906bef0066
:101c2000e0c0b3002fecb7002f6ced008720a900b7
:101c300082cbbf000080fb00d010880030b82000ad
:101c4000a06188008f20a800d2ff3700e6cf5000a7
:101c5000d0ff3a00a0302b0091b820000500090009
:101c6000b05878006000b100d0c0b3008eebb70070
:101c7000a0c0b3008febb700906bef00e0c0b300e3
:101c80002fecb7002f6ced008720a90082cbbf009e
:101c90000080fb00d010880030b82000a0618800d0
:101ca0008f20a800bbff3700602e2b0091b82000ca
:101cb00005000900b05878006000b100d0c0b30042
:101cc0008eebb700a0c0b3008febb700906bef00b6
:101cd000e0c0b3002fecb7002f6ced008720a90007
:101ce00082cbbf000080fb00d010880030b82000fd
:101cf000a06188008f20a800a6ff370040302b008d
:101d000092b8200005000900305978006000b10049
:101d1000d0c0b3008eebb700a0c0b3008febb7000c
:101d2000906bef00e0c0b3002fecb7002f6ced001c
:101d30008720a90082cbbf000080fb00d010880064
:101d400030b82000a06188008f20a80091ff3700e4
:101d5000c02e2b0092b820000500090030597800f1
:101d60006000b100d0c0b3008eebb700a0c0b300dc
:101d70008febb700906bef00e0c0b3002fecb70023
:101d80002f6ced008720a90082cbbf000080fb00f4
:101d9000d010880030b82000a06188008f20a800f3
:101da0007cff3700814be2001d003a007e4be200d1
:101db0001b003a0001b82000914078000140e90082
:101dc000e64f50000c003e00e1cf500015003200fd
:101dd0007dcbbf008040e8008000fd007debb700b8
:101de0008000fd004bff0700806bec0040c0b3009b
:101df0007eebb70000000600a0c0b300bdebb7004b
:101e0000806bef00736bef00766bef007a6bef0087
:101e10007b6bef002e6cef0040ce2000c05b880093
:101e2000000006007d6bef007dcbbf008040e80026
:101e30008000fd007debb7008000fd0035ff07004e
:101e4000806bec0040c0b3007eebb70000000600e2
:101e500080407800e02d2b0022b820000700090008
:101e6000305978008000b100e1cf50002d003200e1
:101e700015003100c02e2b0091b82000050009008c
:101e8000b05878006000b100d0c0b3008eebb7004e
:101e9000a0c0b3008febb700906bef00e0c0b300c1
:101ea0002fecb7002f6ced008720a90082cbbf007c
:101eb0000080fb00d010880030b82000a0618800ae
:101ec0008f20a80000000600e2cf5000fdff3a007e
:101ed00060312b0091b8200005000900b05878004f
:101ee0006000b100d0c0b3008eebb700a0c0b3005b
:101ef0008febb700906bef00e0c0b3002fecb700a2
:101f00002f6ced008720a90082cbbf000080fb0072
:101f1000d010880030b82000a06188008f20a80071
:101f2000e8ff370000312b0092b8200005000900bf
:101f3000305978006000b100d0c0b3008eebb7001c
:101f4000a0c0b3008febb700906bef00e0c0b30010
:101f50002fecb7002f6ced008720a90082cbbf00cb
:101f60000080fb00d010880030b82000a0618800fd
:101f70008f20a800d3ff3700814be2001c003a00fd
:101f80007e4be2001a003a0001b820009140780030
:101f90000140e900e24f50000c003e00e1cf50004c
:101fa000140032007dcbbf008040e8008000fd00bf
:101fb0007debb7008000fd00a5ff0700806bec0003
:101fc00040c0b3007eebb70000000600a0c0b30025
:101fd000bdebb700806bef00766bef007a6bef0024
:101fe0007b6bef002e6cef0040ce2000c05b8800c2
:101ff000000006007d6bef007dcbbf008040e80055
:102000008000fd007debb7008000fd0090ff070021
:10201000806bec0040c0b3007eebb7000000060010
:10202000881f780050bc200061c0b30090cf100022
:102030006d003200744be20047003a0021b62000e8
:10204000914078008180fb0063cbbf004800dd0039
:10205000010070000048a3006e003a000038a300a1
:10206000780032007dcbbf000080fb000000400004
:1020700001df2000e08078000100e0003d00320038
:1020800028b8200008007800adf8070008007800a4
:10209000a4f807008002e9008081e900e18f410097
:1020a0005900320036b82000860078000041eb006d
:1020b00040b820000080410031416900810f50008c
:1020c000fdff3a008281fb00068142008200780019
:1020d000a0c2b30080587800034278004418de00a4
:1020e000e94f50003c00360073c3b3008348400002
:1020f0000280e800ef406200e9cf50002100360086
:1021000072c3b30002d840000001780002007800da
:10211000d1c0b30001587800a1c0b30001487800d5
:102120000280e8000048eb0066c042002fecb700d8
:102130002f6ced008720a90082cbbf000080fb0040
:10214000d0108800a66188008f20a8001000200011
:102150004f047800000006007dcbbf000080fb002c
:102160000000400001e22000e08078000100e00073
:10217000c3ff3a00010078004f0478000000060019
:10218000f5ff370003c3b30003d840000001780017
:1021900002007800d1c0b30001587800a1c0b3009c
:1021a000014878000280e8000048eb0066c0420069
:1021b0002fecb7002f6ced008720a90082cbbf0069
:1021c0000080fb00d0108800a66188008f20a80046
:1021d00010002000deff370003c3b3008348400037
:1021e0000280e800c3ff3700744be2000f003a00a2
:1021f0007dcbbf000080fb000000400081de20009e
:10220000e08078009cff37008001eb0036b82000aa
:10221000adff37007dcbbf000080fb000000400019
:1022200001e12000e080780093ff37007dcbbf0004
:102230000080fb000000400001de2000e08078000c
:102240008dff37007dcbbf000080fb000000400009
:1022500001e02000e080780087ff37002f4ce2008b
:102260001f003a007e4be2001d003a0050bc2000e7
:1022700061c0b30090cf10002400320000b82000ed
:1022800011c0b30090cf10001600320064ff0700a9
:10229000804078000004e0000d003a0074ebb700c5
:1022a00050c0b300bdebb7008000fd0080ebb7006d
:1022b00076ebb7007aebb7007bebb7002eecb700fc
:1022c0008000fd0040ce2000c05b880000000600ba
:1022d0007d6bec00806bec0040c1b3007eebb7007f
:1022e000000006007d6bef00744be20018003a001e
:1022f0007c4be2001c003a0010c0b3007debb7003d
:1023000020c0b30080ebb70000000600c161800070
:10231000004b2000808f50001c003e0010b72000b2
:10232000a1c0b30090cf1000edff3a00c161800062
:1023300010032000808f5000e9ff360000b8200015
:1023400011c0b30090cf1000d0ff3a00e5ff370076
:1023500033ff070010c0b3007debb70020c0b3000f
:1023600080ebb700000006007c6bef002cff07003d
:1023700040c1b3007eebb70010c0b3007debb700e7
:1023800020c0b30080ebb70000000600382cef003f
:10239000c0312b00c1e620000e000900b0587800c3
:1023a000f000b10010c0b300d9ebb70000b82000b6
:1023b00011c0b30090cf1000b4ff3a00c9ff37003e
:1023c000889fbe008a1f7800e0768000f17680004a
:1023d0006071880071718800c8e6200008007800ec
:1023e000d0f707000040e8008084fb000900e80007
:1023f00030eeb7004800de0031eeb700c0c4b300d5
:1024000032eeb70010c8b30033eeb7004ae3200045
:1024100009017800880078000a007800d0f70700ea
:10242000e38144000000eb00e18f4100080032002e
:1024300001e320000041eb0010e320000080410098
:1024400031416900810f5000fdff3a000280fb001e
:1024500080747d006980440010628800422ced0089
:102460008540a9002ccebf000080fb0080108800b2
:10247000d0e22000b06188008d40a800d96bef0049
:102480004f0578004f04be0000000600e076800093
:10249000f1768000607188007171880060c0b300bf
:1024a00030eeb700316eef0030c4b30032eeb7004b
:1024b00010c8b30033eeb700346eef00356eef0096
:1024c000366eef00376eef0080c0b30038eeb70015
:1024d000704be2000200320000c8b30038eeb700d3
:1024e00000e320008040eb0092e32000b0c06800d1
:1024f000800f5100fdff3a000100780039eeb7006f
:10250000e000200010628800422ced008540a90008
:102510002ccebf000080fb0080108800d0e220009d
:10252000b06188008d40a80000000600d76bef0066
:1025300040c0b30034eeb70020c0b30035eeb700a2
:1025400010c0b30036eeb700c6cbbf0037eeb70001
:10255000105f800038eeb7004800de0039eeb700ab
:10256000e0768000f17680006071880071718800eb
:1025700070c0b30030eeb700316eef0030c5b3006d
:1025800032eeb70010c8b30033eeb70000e320000e
:102590008040eb00a2e32000b0c06800800f510033
:1025a000fdff3a00010078003aeeb700f00020008d
:1025b00010628800422ced008540a9002ccebf009f
:1025c0000080fb0080108800d0e22000b06188000d
:1025d0008d40a80000000600db6bef00e076800075
:1025e000f1768000607188007171880070c0b3005e
:1025f00030eeb700316eef0070c7b30032eeb700b7
:102600006a40400033eeb70041e32000c0b520002f
:1026100005000900b058780000e320008040eb007e
:10262000a2e32000b0c06800800f5100fdff3a0017
:10263000010078003aeeb700f00020001062880038
:10264000422ced008540a9002ccebf000080fb008d
:1026500080108800d0e22000b06188008d40a80082
:1026600000000600d06bef00e0768000f17680007d
:10267000607188007171880020c0b30030eeb7002f
:10268000316eef0010c6b30032eeb70010c8b300d1
:1026900033eeb70060c0b30034eeb70000e32000b3
:1026a0008040eb0052e32000b0c06800800f510072
:1026b000fdff3a000100780035eeb700a0002000d1
:1026c00010628800422ced008540a9002ccebf008e
:1026d0000080fb0080108800d0e22000b0618800fc
:1026e0008d40a80000000600235f80001262800079
:1026f0000200e000fdff3a00dc4be2002b0032005c
:10270000e0768000f176800000408800114088006b
:102710007780410004e8b7004800de0005e8b70014
:1027200040c4b30006e8b70010c8b30007e8b7001c
:1027300079824100e10f42004900320041802000cf
:10274000508020000000420031416900810f50009c
:10275000fdff3a008280fb00e0812000817178005b
:1027600000802000b0618800dc6bef007f804100ba
:1027700010628800422ced008540a900b061800005
:10278000b080fb0081108800b06188008d40a800f7
:10279000806080009160800061004000e08048001f
:1027a000806088009160880000000600e07680006c
:1027b000f1768000704d8800814d8800778041005f
:1027c000b2e9b7004800de00b3e9b70040c4b30087
:1027d000b4e9b70010c8b300b5e9b7007982410089
:1027e000e10f420025003200219b2000309b200099
:1027f0000000420031416900810f5000fdff3a00a6
:102800008280fb00c09c200081717800e09a20004b
:10281000b061880010c0b300dcebb7007f804100de
:1028200010628800422ced008540a900b061800054
:10283000b080fb0081108800b06188008d40a80046
:10284000806080009160800061004000e08048006e
:10285000806088009160880000000600d3ff370088
:1028600082007800e08120008171780000802000e3
:10287000b0618800dc6bef00bcff3700820078009d
:10288000c09c200081717800e09a2000b06188002f
:1028900010c0b300dcebb700e0ff3700cb02a800ac
:1028a000ff3ffc00d662a90000000000000000000d
:1028b000d662a8005220ef000000000000000000d7
:1028c00000000000c3c2bf000038a300fdff3200bb
:1028d0000000000000000000000000004016800022
:1028e000f00fb200cb02a900000000004800dd009c
:1028f000411680008180fb0001007000000006008e
:10290000809fbe00829fbe001f4ce200120032007a
:10291000294ce20081003a00216ced00214ce200dc
:102920006d003200606280007162800061004000d2
:10293000e080480060628800716288000001be008b
:10294000f0bf250061522000800f5100818f590097
:102950005d003e001f6cef001e4ce20028003a00b4
:10296000294ce2004c003a00216ced00214ce200c1
:1029700037003200626280007362800061014100b2
:10298000e0814900626288007362880062628000b0
:1029900073628000f0bf250061522000800f51005b
:1029a000818f590027003e001d4ce20010003200cc
:1029b0001a4ce20014003a001b4ce2006a0032009c
:1029c000d5c2bf006140600067003a0062628000cb
:1029d0007362800042628800536288001becb7007b
:1029e00024ecb70010c0b30015ecb700382cec0095
:1029f0008460a9004f01be004f00be0000400600e9
:102a00001e6cef00e8ff37001b4ce2004f00320065
:102a1000d5c2bf000008a3004c00320060628000f5
:102a20007162800040628800516288001b6cef0078
:102a3000246cef0010c0b30015ecb700382cec008c
:102a4000ebff37004c2cef004e2cef00d6ff370089
:102a500020ccbf0021ecb70010c0b3002decb700b4
:102a6000626280007362800061014100e081490080
:102a70006262880073628800626280007362800014
:102a8000f0bf250061522000800f5100818f590056
:102a9000c5ff3600ebff3700402ced00400ce20094
:102aa0003d00320001628000301f2000808f500006
:102ab000adff3e00e202a900216ced00214ce200d6
:102ac000acff3a00e2ff37004c2cef004e2cef0039
:102ad0001f6cef00a0ff370020ccbf0021ecb70037
:102ae00010c0b3002decb7006062800071628000fe
:102af00061004000e08048006062880071628800e8
:102b00000001be00f0bf250061522000800f51007f
:102b1000818f59008fff3600ebff3700402ced000e
:102b2000400ce2001500320001628000301f2000de
:102b3000808f500078ff3e00e202a900216ced007a
:102b4000214ce20077ff3a00e3ff3700d5c2bf0017
:102b50000008a300a5ff3a0010c0b3001becb700ab
:102b6000382cec00a2ff3700d5c2bf000008a3003c
:102b7000f9ff3a00382cec009dff3700803e200022
:102b800000628800e202a800216ced00214ce20006
:102b900064ff3a00d0ff3700803e200000628800ca
:102ba000e202a800216ced00214ce20071ff3a0026
:102bb000a7ff3700889fbe008a9fbe003a5f800053
:102bc000f95e800068bc20001844780080c5eb00e6
:102bd0000844e9008b4f54003d003200e3bc200064
:102be000934178008342e9006033b800e1cf4200ae
:102bf0001f00320005427800cb02a800ff3ffc0016
:102c0000d662a9000000000000000000d662a80003
:102c10005220ef0000000000000000000000000053
:102c2000c3c2bf000038a300fdff32000000000057
:102c3000000000000000000040168000f00fb2000d
:102c4000cb02a900000000004800dd004216800011
:102c50000281fb0002007000cf80de00060340000e
:102c6000878348000442e900e14f4200e2ff3a0056
:102c7000c74bec00c7ebb7000080fb000a007000f8
:102c8000b0168800a2bc2000124178000204e000c7
:102c900016003200e00f5300e08f5b001900350092
:102ca0000280fb00000178000201e900030033000c
:102cb0008783d1000683d300fbff37000600be00e8
:102cc000801c78000844e9008b4f5400c3ff3a0091
:102cd000f95e8800c76bef00ba1688000060fe003e
:102ce0004f05be004f04be00000006000381fb003c
:102cf000030020000600be00c2f50700801c78001b
:102d0000f0ff370060001300e0801b000281fb0031
:102d10000201e900030033008180d1000080d3006c
:102d2000fbff370060001000e0801800801c780076
:102d3000e4ff3700889fbe008a9fbe006abc200067
:102d40001a4578000a04e0003d003200ce4bed0049
:102d500080447800385f8000c74bec000043780067
:102d60008043eb00cbbe20006022b800e1cf4400de
:102d70001f00320089417800cb02a800ff3ffc0011
:102d8000d662a9000000000000000000d662a80082
:102d90005220ef00000000000000000000000000d2
:102da000c3c2bf000038a300fdff320000000000d6
:102db000000000000000000040168000f00fb2008c
:102dc000cb02a900000000004800dd004216800090
:102dd0000281fb0002007000cf80de000402400090
:102de000858248008341e900e1cf4100e2ff3a00db
:102df0000680fb0008007000b01688000780fb000a
:102e00004200dd000b0040001008420050904a00d4
:102e10008743e8000643e8008acf5300d2ff3a0018
:102e20000640e900c7ebb700c76bef00b816880093
:102e30000060fe004f05be004f04be00000006000b
:102e4000385f8000c76bef00b81688000060fe0096
:102e50004f05be004f04be0000000600f8ff37001b
:102e6000889fbe0062002000b1322b0090d6200067
:102e700042f507000000e00049003a00154ce2006e
:102e800024003a0082d6200078002000c9c2b30096
:102e90000804e9000500320092cf140016003a0041
:102ea0000201e8000804e900fbff3a000200e0002c
:102eb000370032001240780072ebb7008280e800e1
:102ec00032419000c0c2b300804f51008f003200e9
:102ed0001100fb006a00b9000042b0000040410050
:102ee00002cdb30002404000beebb700100020004e
:102ef0004f04be0000000600c1022000020078005e
:102f0000fff407000000e000210032000001e800ab
:102f1000dfff370015ecb700f0d620001001fb00f2
:102f20006a11b90000d720001041410070415100e2
:102f300002007800c4ebb70012d7200012417800dd
:102f40000201fb006a11b90021d7200011414100a4
:102f50007041510002007800c3ebb70032d7200067
:102f6000124178000201fb006a11b90040d720002d
:102f7000104141007041510002007800c2ebb700df
:102f800082d6200078002000c9c2b300c0ff3700fd
:102f90000000eb004f04be0000000600d6ff370023
:102fa0006200200021332b0090d62000f3f40700ac
:102fb0000000e000f6ff3a00154ce20034003a0051
:102fc00084d62000a8002000c9c2b3000804e9008c
:102fd0000500320094cf140026003a000402e800f5
:102fe0000804e900fbff3a000400e0004c00320056
:102ff00094407800c0c2b30080cf5000530032002c
:103000000100fb006a00b9000042b00014419000ca
:103010000240400003cdb30003404000bbebb700cb
:10302000244090000000fb006a00b9000042b0009c
:10303000344190000240400003404000bcebb70028
:10304000444090000000fb006a00b9000042b0005c
:10305000544190000240400003404000baebb700ea
:103060007f6bef00100020004f04be000000060040
:10307000a1ff3700c102200004007800a0f407007f
:103080000000e000260032000002e800cfff370019
:1030900015ecb700f0d620001001fb006a11b90052
:1030a00001d7200011414100704151000200780019
:1030b000c4ebb70012d72000124178000201fb00d8
:1030c0006a11b90020d72000104141007041510021
:1030d00002007800c3ebb70032d72000124178001d
:1030e0000201fb006a11b90041d7200011414100e3
:1030f0007041510002007800c2ebb70084d6200076
:10310000a8002000c9c2b300b0ff370000cdb30053
:1031100011404000beebb7001000200074ff3700e4
:1031200090332b00c1e6200017000900b05878004a
:103130008001b10010c0b300d9ebb7000000eb0074
:103140004f04be00000006006bff37000004fd00c6
:10315000baebb700bcebb700bbebb7000004fd0057
:103160007f6bef0010002000bfff3700814be200b3
:1031700010003a007e4be2000e003a0000b820003a
:1031800011c0b30090cf10000b003200a0c0b300fc
:10319000bdebb700806bef00746bef00766bef0058
:1031a0007a6bef007b6bef002e6cef0040ce2000bf
:1031b000c05b88000000060000c4b30082ebb700cb
:1031c00083ebb70000c0e80084ebb70020c6b30073
:1031d00085ebb7000100780086ebb70040b820000f
:1031e0008040eb0072b82000b0c06800800f510032
:1031f000fdff3a000100780087ebb700d0c0b300b4
:1032000088ebb700a0c0b30089ebb70080c0b30063
:103210002fecb7002f6ced008720a90082cbbf00f8
:103220000080fb00d010880030b82000a06188002a
:103230008f20a80020c0b30080ebb700000006007c
:10324000814be20011003a007e4be2000f003a0091
:1032500000b8200011c0b30090cf10000c00320065
:10326000a0c0b300bdebb700806bef00746bef0044
:10327000736bef00766bef007a6bef007b6bef0008
:103280002e6cef0040ce2000c05b880000000600de
:1032900000c4b30082ebb70083ebb70000c0e800c6
:1032a00084ebb70020c6b30085ebb700866bef0058
:1032b00040b820008040eb0072b82000b0c0680029
:1032c000800f5100fdff3a000100780087ebb70046
:1032d000d0c0b30088ebb700a0c0b30089ebb70043
:1032e00080c0b3002fecb7002f6ced008720a90041
:1032f00082cbbf000080fb00d010880030b82000d7
:10330000a06188008f20a80020c0b30080ebb70028
:103310000000060016c0b30085d6200031c2200090
:103320009140780022ccbf0080cf50006300320073
:103330008f00a90022ccbf000080fb00c1eb200061
:1033400060c17800226cec0022ccbf00ff4f50001f
:1033500001003600226cef008f00a8000200780008
:1033600071ebb700382cef00754be2003f003200e4
:10337000804be2003d003a007b4bec00804078003f
:103380007bebb700e0c7b30080cf500031003600c0
:103390002e4ce200de003a0003c52000764be2002e
:1033a00078003200c0ed200003000900b059780019
:1033b0004300b1007bcbbf000082fb000400e800ab
:1033c00080007800f10fb200c14198004800de0093
:1033d000d041980070c6b300e04198007a404000a8
:1033e000f04198007acbbf00014068007aebb7004b
:1033f000d3409000014068007aebb700e3409000b2
:10340000014068007aebb700f3409000014068008b
:103410007aebb7008480410080489800936188006f
:10342000764be20079003a000600780076ebb700b0
:1034300080c52000c05b88007b6bef007a6bef00db
:10344000d1cbbf00780032000040e900d1ebb700db
:1034500075003200c05b800002587800c05b8800b5
:10346000024078007acbb6007aebb70050bc20005f
:1034700021c0b30090cf100011003200ed4f510079
:10348000a6ff3200244ce2001c003a0040c2b30008
:10349000804f5100a1ff3a000600780024ecb700ed
:1034a0000200780068edb70031c22000914078003a
:1034b00022ccbf0080cf50009dff3a0000000500e5
:1034c00093bb2000934178000304e0001800320011
:1034d00024ccbf008080fb0082f07a000040e8002e
:1034e00024ecb7000340e900b9ebb7008bff3a00ca
:1034f000b6ebb700b7ebb7001000050041c22000e3
:103500009140780060c7b30080cf500077003e0044
:10351000ea4f51006f00320024ccbf008080fb00d6
:1035200082f07a000040e80024ecb7007bff37000f
:10353000b74be20006003a0000c4b300804f5100d0
:103540004b00320003007800b6ebb70073ff370082
:1035500041c22000914078000104e0003b003a00a5
:1035600050c4b300804f5100ebff32006340500065
:10357000804f5100e8ff320001007800b7ebb70040
:1035800066ff3700c3cd2000c0ed20000300090016
:10359000b05978004300b1007bcbbf000082fb0034
:1035a0000400e80080007800f10fb200c1419800eb
:1035b0004800de00d041980070c6b300e04198009a
:1035c0007a404000f04198007acbbf00014068008b
:1035d0007aebb700d3409000014068007aebb70067
:1035e000e3409000014068007aebb700f3409000a0
:1035f000014068007aebb700848041008048980061
:1036000093618800764be20087ff3200766bef0013
:1036100040ce2000c05b88007b6bef007a6bef0030
:10362000d1cbbf0088ff3a00694042002eecb700c2
:10363000c05b800002587800c05b880002407800c0
:103640007acbb6007aebb70088ff3700f0c9b30039
:1036500000404100e14f5000110036008001fd00a4
:1036600024ecb700b7ebb7008001fd002bff37005b
:10367000b64be20003003a0006007800b6ebb70054
:1036800026ff37008001fd00b6ebb70024ecb70041
:103690008001fd0006007800b7ebb7001fff370080
:1036a00024ccbf008080fb0082f07a000040e8005c
:1036b00024ecb70050c4b300684de3002200320090
:1036c00060c5b300b9ebb70000c0e800b8ebb700c5
:1036d00012ff370024ccbf000080fb000500400033
:1036e0000048eb00246cef0010000500246cef0094
:1036f00090362b00c1e6200018000900b058780071
:103700009001b10006007800d9ebb7000000050079
:10371000766bef007a6bef007b6bef002e6cef00a7
:1037200040ce2000c05b880010352b00c1e6200091
:1037300017000900b05878008001b1000600780039
:10374000d9ebb700000005000040e800b9ebb70076
:1037500000c0e800b8ebb700f0fe3700881f780023
:10376000804be20006003a00d8bb200018447800e5
:103770000804e000040032000840e900bdebb70097
:103780004f047800000006002ff507000004e00059
:10379000fbff3200b2fd0700804078000004e0002b
:1037a0005e00320042bc2000124178000281fb0022
:1037b0000300200000e120000011b800c3cbbf00cf
:1037c0000080fb0001002000c40320000400b800ba
:1037d0000201400083814800c2cbbf000080fb0093
:1037e00001002000020340008383480066608800d7
:1037f00077608800dd4be200e1ff3200406280002c
:1038000051628000e00f5000e08f5800dcff320072
:1038100008007800ddebb7008c60a9000800780094
:103820001eecb7001eccbf001fecb700406280004a
:1038300051628000823e20000232b80002b9b90015
:10384000850241000000520081805a004800330088
:103850006262800073628000020040008380480042
:1038600060628800716288000001be00f0bf250020
:1038700061522000800f5100818f590008003600ee
:1038800000402a0091ad2f006262800073628000c8
:1038900002004000838048006062880071628800f6
:1038a00028bd2000184478000804e0000a00320017
:1038b00060628000716280004206200003002000e8
:1038c000cdf2070042c6b30000415100020078006b
:1038d00021ecb7002d6cef00606280007162800007
:1038e000823e200003002000c3f20700823e200039
:1038f00000015100026288008c60a8000804e0000a
:103900009fff3200d26bef00cc6bef00c96bef0072
:103910004f047800000006009bff3700754be20063
:1039200097ff3a007f4bec007febb700e24f50006f
:1039300093ff3600010078007febb70011c0b300a1
:103940000100780080ebb70020382b00c2e6200091
:103950000f000900305978000001b1000100780023
:10396000d9ebb7004f0478000000060086ff37004f
:1039700060021000e08218006062800071628000c6
:10398000800f5200818f5a000b0036006262800067
:10399000736280000201520083815a0000c025003a
:1039a000615220000200500083805800606288004d
:1039b00071628800baff3700606280007162800027
:1039c00004005000858058006062880071628800a1
:1039d000b3ff37000200fa00881f7800804be20036
:1039e0001d003a00d2bb2000124178000204e00022
:1039f0001c003a00b8cbbf000080fb000002e900c9
:103a00008401e9008000eb0085d62000e18f4100b1
:103a1000070032008500780090d620000080410029
:103a200031416900810f5000fdff3a008280fb00a8
:103a30000500420090cf10001000320020392b000a
:103a4000c1e6200016000900b05878007001b100ee
:103a500010c0b300d9ebb7004f0478000080fa0023
:103a6000000006000240e900bdebb7004f047800fb
:103a70000080fa0000000600faff370020c4b300ff
:103a8000684de30093003200e2d620001241780036
:103a900002007800c4ebb700f4d62000144278008e
:103aa00004007800c3ebb70005d7200095427800ea
:103ab00005007800c2ebb7006acdbf00bcebb700d1
:103ac0006bcdbf00bbebb700c1d6200091407800a2
:103ad0008180fb006dcdbf004800dd0081007000db
:103ae000e1bf9f0064805700b040780090417800ab
:103af000c3ff9f00014878004ff897000043b000d3
:103b0000baebb7008dcdbf00beebb700e24f50005f
:103b10005b00360010c3b30072ebb7000281fb00fc
:103b20000300200000e120000011b8000480fb0029
:103b300001002000c40320000400b800020140007e
:103b4000838148000580fb00010020000203400043
:103b5000838348006660880077608800dd4be20060
:103b6000bdff32004062800051628000e00f5000d3
:103b7000e08f5800b8ff3200dd6bef008c60a900c9
:103b80001e6cef001eccbf001fecb700406280002f
:103b900051628000823e20000232b80002b9b900b2
:103ba000850241000000520081805a003700330036
:103bb00062628000736280000200400083804800df
:103bc00060628800716288000001be00f0bf2500bd
:103bd00061522000800f5100818f5900080036008b
:103be00000402a0091ad2f00626280007362800065
:103bf0000200400083804800606288007162880093
:103c000028bd2000184478000804e0000a003200b3
:103c10006062800071628000420620000300200084
:103c2000f5f1070042c6b3000041510002007800e0
:103c300021ecb7002d6cef006062800071628000a3
:103c4000823e200003002000ebf10700823e2000ae
:103c500000015100026288008c60a8000804e000a6
:103c60007dff3200d26bef00cc6bef00c96bef0031
:103c70004f0478000080fa000000060079ff37004a
:103c800000c3b30072ebb700a4ff3700600210005e
:103c9000e08218006062800071628000800f520034
:103ca000818f5a00190036006262800073628000c2
:103cb0000201520083815a0000c025006152200099
:103cc00002005000838058006062880071628800a2
:103cd000cbff370011c0b3000100780080ebb700c4
:103ce000903a2b00c2e620000e00090030597800ff
:103cf000f000b10001007800d9ebb7004f04780064
:103d00000080fa000000060056ff37006062800065
:103d10007162800004005000858058006062880055
:103d200071628800b6ff3700889fbe008a9fbe0080
:103d30008c60a9008d20a800266cef0026ccbf0067
:103d40002cecb7000045eb00190020008905780035
:103d50000060fe00a200200040ce200001002000f4
:103d600061005000e0805800e10f4000e08f480003
:103d7000fbff3a000201e900f7ff3a00c9c2bf00a9
:103d80004300de00e1006000c9c2bf000048a3009c
:103d9000010032000114a000e0c2bf000068a300cf
:103da000370032000200780070ebb7000180fb00a2
:103db00052bd2000124178000204e1001a003200d6
:103dc000d5ebb70078062000e34f50000700320023
:103dd00038032000e24f5000040032009801200018
:103de000e14f500001003200080120008d40a90081
:103df0008d20a900a2f1070008017800d17d2f00d5
:103e000000b02d00a4f107000ec2bf000018a300ef
:103e1000010032000e22a900f0f32f000e22b6009e
:103e20002c6cef008d20a800264ce2000a00320026
:103e3000266cef002c6cef00c1e920009140780067
:103e400020c6b30080cf50004200320030c4b3001f
:103e500080cf50003c0032008904e9000f0032009e
:103e60008b05e900baff3a000a04e00007003200bf
:103e7000e202a9000b457800ab002000b4ff370038
:103e800010c0b30070ebb700c8ff3700e202a80013
:103e90001ac0b300ab002000adff3700e076800011
:103ea000f1768000607188007171880060c0b30095
:103eb00030eeb7000900780031eeb70030c4b3002f
:103ec00032eeb70010c8b30033eeb7008004fd0037
:103ed00034eeb70035eeb70036eeb70037eeb70078
:103ee0008004fd0080c0b30038eeb700704be200e4
:103ef0000200320000c8b30038eeb70001e3200032
:103f00000940780092e3200031406800810f5100a1
:103f1000fdff3a0039eeb700e00020001062880093
:103f2000422ced008540a9002ccebf000080fb0094
:103f300080108800d0e22000b06188008d40a80089
:103f400049062000c6ff37004f05be004f04be00e3
:103f5000000006000000fe00bfff3700881f780049
:103f6000a1e2a900a8a2ef00f08f2100301688007e
:103f7000000024006016880000df2f0090168800e3
:103f8000c0ff2f00f0168800c162a800c822ef0011
:103f900080002000305f8800b0168800cb02a900a6
:103fa000e202a80040a7a900c9c2bf004300de008a
:103fb000e1006000c9c2bf000048a3000100320058
:103fc0000114a000e0c2bf000068a3005900320045
:103fd000706bef000180fb00d5ebb7007806200086
:103fe000e34f50000700320038032000e24f50003a
:103ff0000400320098012000e14f5000010032001f
:10400000080120008d40a9008d20a9001cf10700a7
:1040100008017800d17d2f0000b02d001ef10700af
:104020000ec2bf000018a300010032000e22a9003a
:10403000f0f32f000e22b6002c6cef000021ef00f1
:10404000f0e72300100888000421a90095c0bf00f4
:104050000044a1000046b30095e0b7008460a900c9
:1040600005e1a80042c0bf007f4060000046b300e9
:1040700042e0b700482cef004a2cef00406280007d
:10408000516280006062880071628800296cef00d4
:1040900010c0b300c6ebb70040062000105f8800d8
:1040a00050c0b30020ecb700c56bef001c6cef00f4
:1040b0001cccbf001decb7001a6cef00156cef00b4
:1040c00015ccbf0071ebb70014ecb700382cef0033
:1040d00080c1b300ceebb700a0c0b300c8ebb700ff
:1040e000d86bef002203200040ce2000010020000a
:1040f00061005000e0805800e10f4000e08f480070
:10410000fbff3a000201e900f7ff3a000001fd0061
:10411000d9ebb70025ecb7000001fd0025ccbf00ae
:1041200026ecb70002007800d6ebb7004f04780009
:104130000000060010c0b30070ebb700a5ff370009
:10414000a0cab300dceeb70050c5b300ddeeb70087
:1041500080c8b300deeeb70040c4b300dfeeb700a6
:10416000dc6bef00422cef00102cef00122cef0064
:104170001f6cef00801f78001fccbf001eecb70043
:104180004f007800482cef004a2cef000c2cef0079
:104190000e2cef003a2cef00382cef00716bef0083
:1041a0007440500072ebb700be6bef00806bef0005
:1041b0002f6cef00d76bef00803e2000006288007c
:1041c00020ccbf0021ecb700c6cbbf000080fb00b5
:1041d000125f80000280b900a200200011000900d7
:1041e0000280d80000004000205f88002d6cef00a6
:1041f000c96bef00cc6bef00db6bef00226cef00c4
:1042000022ccbf0023ecb70023ccbf0024ecb700c6
:104210002c6cef002cccbf00cdebb700816bef0016
:104220007f6bef007c6bef00dd6bef0050c0b300e5
:10423000bdebb7007e6bef00736bef00746bef00ac
:10424000756bef00d36bef00d46bef00d26bef0018
:10425000d16bef00d06bef00ec2bef00ee2bef00fb
:10426000f02bef00f22bef00f42bef00f62bef001a
:10427000f82bef00fa2bef00fc2bef00fe2bef00ea
:10428000002cef00022cef00042cef00062cef00b6
:10429000082cef000a2cef00b86bef00b96bef00b1
:1042a000b66bef00b76bef00ba6bef00bb6bef00c4
:1042b000bc6bef00c76bef0080002000305f880010
:1042c000b0168800766bef007a6bef007b6bef0027
:1042d0002e6cef0040ce2000c05b8800a1c1200002
:1042e000914078000104e0002c003200d5c2bf00ec
:1042f000614060002d00320010c0b3001becb7001d
:104300008c60a8008d20a800e202a8001d4ce200ed
:10431000200032008f20a9008720a9002f6cef0019
:1043200051bc200091407800e6cf500029003200b7
:1043300010c0b30080ebb700246cef00e2cf500058
:104340001c003200e6cf50001a0032008f20a90076
:104350008f00a90054f00700f20c2000d17d2f003f
:1043600000f02d0056f0070018c2bf000018a3008f
:10437000010032001822a900f0f32f001822b60025
:10438000226cef0022ccbf0023ecb7008f00a80006
:104390000060fe000060fe0000000600d5c2bf0005
:1043a0000008a30008003a0010c0b3001becb700df
:1043b000d3ff37008f20a9008f00a9003af0070033
:1043c00072062000e5ff3700010078001becb70003
:1043d000cbff370010c0b3007cebb700d4ff370031
:1043e000146280000400e000fdff3a008520a9006f
:1043f0008540a9008700a9008720a9008c60a9003a
:1044000020b62000d1e920000d00090031587800c5
:10441000e6b620001643780006007800c6ebb70029
:10442000f5b620009542780005007800c5ebb7008e
:1044300061b62000914078008180fb0067cbbf000f
:104440004800dd000101700081b620009140780035
:104450008180fb0069cbbf004800dd008101700056
:10446000626288007362880041b620009140780043
:104470008180fb0065cbbf004800dd0001017000ba
:10448000125f88000640e900e74f50000f003e0031
:10449000401f2000800f51000a003200e2cf52007e
:1044a0000e003600e6cf52000c003200e3cf52007f
:1044b0007800320010c0b3001cecb7001d6cef0098
:1044c00000000500e44f5300f4ff360010c0b300b5
:1044d000c6ebb700040078000000060010c0b3006f
:1044e0001decb7001c6cef0021b620009140780055
:1044f0008180fb0063cbbf004800dd0081017000bc
:10450000618061003900320010c0b3001aecb700be
:10451000ea0f510042003200f40f51004a0032000d
:1045200021032000810f510051003200400620007d
:10453000800f51005b003200800c2000800f510082
:1045400062003200a00f2000800f5100690032008d
:10455000401f2000800f51000100320000000500c4
:10456000e44f5300fdff3e0020c0b30020ecb70035
:1045700001007800c8ebb70010c0b300cbebb70068
:1045800000c1b300ceebb70040c0b300caebb70028
:10459000cecbbf000080fb00b2bc200012417800ef
:1045a0000281fb000280b900cf80de00405f8800fe
:1045b000515f88000318a30016003200296cef0039
:1045c000648061000b00320010c0b30014ecb7002f
:1045d00040a7a800dafe0700d86bef0010c0b300b8
:1045e000d6ebb7000060fe00100005001aecb70023
:1045f000c7ff370014ecb70040a7a900d0fe0700a2
:10460000d86bef0010c0b300d6ebb7000060fe001f
:104610001000050010c0b30029ecb700e8ff370018
:1046200050c0b30020ecb70010c0b300c8ebb70017
:1046300040c1b300cbebb70000404000ceebb70069
:10464000ca6bef00d3ff370050c0b30020ecb700b7
:1046500020c0b300c8ebb700a0c0b300cbebb700dd
:104660007e404000ceebb700ca6bef00c9ff3700b9
:1046700050c0b30020ecb700c8ebb70040c0b30097
:10468000cbebb70080c2b300ceebb700ca6bef0034
:10469000c0ff370010c0b3001cecb7001d6cef006a
:1046a00091ff370050c0b30020ecb700a0c0b300aa
:1046b000c8ebb70020c0b300cbebb70080c2b3009b
:1046c000ceebb700ca6bef00b2ff370050c0b300ab
:1046d00020ecb70040c1b300c8ebb70010c0b30076
:1046e000cbebb70080c2b300ceebb700ca6bef00d4
:1046f000a8ff370041c0b3000100780020ecb700ec
:1047000090c1b300c8ebb70010c0b300cbebb7004b
:1047100000c1b300ceebb7008000fd00caebb700cc
:104720008000fd009bff3700814be20017003a003c
:104730007e4be20015003a0001b82000914078005d
:10474000e1cf50004000320001c0e900e14f5000cd
:1047500019003600e4cf50007f00320065c05000e1
:10476000e74f50000a003600a0c0b300bdebb70011
:10477000806bef00766bef007a6bef007b6bef00e6
:104780002e6cef0040ce2000c05b880000000600c9
:104790007dcbbf008040e8008000fd007debb700ce
:1047a0008000fd00dbf40700806bec0040c0b3002c
:1047b0007eebb7000000060000c4b30082ebb70038
:1047c00083ebb7006340400084ebb70090c6b300b2
:1047d00085ebb70010c0b30086ebb70040b82000ef
:1047e0000041eb0073b8200030416900808f510018
:1047f000fdff3a000200780087ebb700d0c0b3009d
:1048000088ebb700a0c0b30089ebb70080c0b3004d
:104810002fecb7002f6ced008720a90082cbbf00e2
:104820000080fb00d010880030b82000a061880014
:104830008f20a8000140e80080ebb70020c0b30043
:104840007eebb700000006008f20a9008f00a900b2
:1048500015ef070072062000d17d2f0000f02d001b
:1048600017ef070018c2bf000018a3002d003a0080
:10487000f0f32f001822b600226cef00801f7800a2
:1048800022ccbf0023ecb7004f0078008f00a800b7
:104890007d6bef007c4be20002003a00806bec0085
:1048a000000006007c6bef000040e80082ebb700e0
:1048b00083ebb7006340400084ebb70060c6b300f1
:1048c00085ebb70040b820008040eb0062b82000c4
:1048d000b0c06800800f5100fdff3a000100780071
:1048e00086ebb700d0c0b30087ebb700a0c0b30021
:1048f00088ebb70070c0b3002fecb7002f6ced0051
:104900008720a90082cbbf000080fb00d010880068
:1049100030b82000a06188008f20a800806bec00d8
:10492000000006001822a900f0f32f001822b6009c
:10493000226cef00801f780022ccbf0023ecb70070
:104940004f0078008f00a8007d6bef007c4be200e9
:10495000d2ff3200d3ff37008f20a9008f00a900bb
:10496000d1ee0700f20c2000d17d2f0000f02d00c9
:10497000d3ee070018c2bf000018a30001003200e8
:104980001822a900f0f32f001822b600226cef00c5
:1049900022ccbf0023ecb7008f00a800806bec0096
:1049a00000000600881f7800814be20018003a00e2
:1049b0007e4be20016003a0008b820001844780048
:1049c000e14f54005f00320008c0e900e14f5000a1
:1049d00098003600e44f54006f003200e54f540059
:1049e00032003200e64f54000b003200a0c0b3008a
:1049f000bdebb700806bef00766bef007a6bef00da
:104a00007b6bef002e6cef0040ce2000c05b880077
:104a10004f0478000000060000c4b30082ebb7002a
:104a200083ebb70000c0e80084ebb70020c6b300fa
:104a300085ebb700866bef0040b820008040eb00ac
:104a400072b82000b0c06800820f5000fdff3a002d
:104a50000100780087ebb700d0c0b30088ebb70047
:104a6000a0c0b30089ebb70080c0b3002fecb70043
:104a70002f6ced008720a90082cbbf000080fb00d7
:104a8000d010880030b82000a06188008f20a800d6
:104a900070c0b30080ebb70020c0b3007eebb7005e
:104aa0004f04780000000600dbff370000c4b300ad
:104ab00082ebb70083ebb7006540400084ebb700a2
:104ac0007c40400085ebb70010c0b30086ebb70018
:104ad00040b820008040eb0072b82000b0c06800f1
:104ae000800f5100fdff3a000100780087ebb7000e
:104af000d0c0b30088ebb700a0c0b30089ebb7000b
:104b000080c0b3002fecb7002f6ced008720a90008
:104b100082cbbf000080fb00d010880030b820009e
:104b2000a06188008f20a80060c0b30080ebb700b0
:104b300020c0b3007eebb7004f04780000000600f1
:104b4000b5ff37008f20a9008f00a90056ee07009f
:104b5000f20c2000d17d2f0000f02d0058ee070050
:104b600018c2bf000018a3001f003a00f0f32f0086
:104b70001822b600226cef0022ccbf0023ecb70055
:104b80008f00a8007d6bef00806bec004f04780075
:104b900000000600a0ff37008f20a9008f00a900a9
:104ba00041ee070072062000d17d2f0000f02d009d
:104bb00043ee070018c2bf000018a30014003a001b
:104bc000f0f32f001822b600226cef0022ccbf00b9
:104bd00023ecb7008f00a800806bec004f04780036
:104be000000006008cff37001822a900f0f32f0008
:104bf0001822b600226cef0022ccbf0023ecb700d5
:104c00008f00a8007d6bef00806bec00dfff3700aa
:104c10001822a900f0f32f001822b600226cef0032
:104c200022ccbf0023ecb7008f00a800806bec0003
:104c3000eaff370020b82000f12c2b0022b820001a
:104c40000e00090031597800f100b100a061880020
:104c5000b4ed07002fecb7002f6ced008720a90002
:104c600082cbbf000080fb00d010880030b820004d
:104c7000a06188008f20a8000840e80080ebb70002
:104c800020c0b3007eebb7004f04780000000600a0
:104c900061ff3700c5cbbf0008003200e64f50006f
:104ca00006003200e14f500005003200e24f500094
:104cb0001a003200806bef000000060067f5370035
:104cc000744be2002a003200814be200faff3a0006
:104cd0007e4be200f8ff3a0001b8200091407800d6
:104ce0000140e900e24f500086003e00e1cf500055
:104cf0006d0032007dcbbf008040e8008000fd00e9
:104d00007debb7008000fd0051f40700806bec00e4
:104d100040c0b3007eebb70000000600744be20019
:104d20002a003200814be200e3ff3a007e4be200b2
:104d3000e1ff3a0000b8200011c0b30090cf10008e
:104d40007a003200a0c0b300bdebb700806bef006b
:104d5000746bef00766bef007a6bef007b6bef000c
:104d60002e6cef0040ce2000c05b880000000600e3
:104d7000734be20062003200814be200ceff3a004a
:104d80007e4be200ccff3a0001b820009140780051
:104d90000140e900e64f500016003e00e1cf500010
:104da0004c0032007dcbbf008040e8008000fd0059
:104db0007debb7008000fd0056f30700806bec0030
:104dc00040c0b3007eebb70000000600734be2006a
:104dd00013003200814be200b7ff3a007e4be20045
:104de000b5ff3a0000b8200011c0b30090cf10000a
:104df0000c003200a0c0b300bdebb700806bef0029
:104e0000736bef00766bef007a6bef007b6bef005c
:104e10002e6cef0040ce2000c05b88000000060032
:104e2000e0fe370000c4b30082ebb70083ebb700ad
:104e300000c0e80084ebb70020c6b30085ebb700e4
:104e4000866bef0040b820008040eb0072b8200075
:104e5000b0c06800820f5000fdff3a0001007800ea
:104e600087ebb700d0c0b30088ebb700a0c0b30099
:104e700089ebb70080c0b3002fecb7002f6ced00ba
:104e80008720a90082cbbf000080fb00d0108800e3
:104e900030b82000a06188008f20a80020c0b30097
:104ea00080ebb700000006007d6bef007dcbbf00fc
:104eb0008040e8008000fd007debb7008000fd0031
:104ec000e3f30700806bec0040c0b3007eebb7005b
:104ed000000006007d6bef007dcbbf008040e80046
:104ee0008000fd007debb7008000fd0009f30700a6
:104ef000806bec0040c0b3007eebb7000000060002
:104f000009fe3700a0c0b300bdebb700806bef0017
:104f1000766bef007a6bef007b6bef002e6cef008f
:104f200040ce2000c05b88000000060000c4b30033
:104f300082ebb70083ebb70000c0e80084ebb7005a
:104f400020c6b30085ebb7000100780086ebb70000
:104f500040b820008040eb0072b82000b0c068006c
:104f6000800f5100bdff3200b0c06800800f5100bb
:104f7000faff3a00b9ff37008f20a9008720a90067
:104f80002f6cef0051bc200091407800e6cf50001c
:104f90001f00320010c0b30080ebb700246cef009c
:104fa000e2cf500015003200e6cf5000130032006f
:104fb0008f20a9008f00a9003bed0700f20c200014
:104fc000d17d2f0000f02d003ded070018c2bf007d
:104fd0000018a300010032001822a900f0f32f00ee
:104fe0001822b600226cef0022ccbf0023ecb700e1
:104ff0008f00a8000060fe00000006008f20a900be
:105000008f00a90028ed070072062000ecff370092
:1050100010c0b3007cebb700deff3700889fbe00f6
:10502000c5cbbf00e24f50002f003200e64f5000ca
:105030002d0032008f20a9008f00a9001aed070073
:10504000f20c2000d17d2f0000f02d001ced070098
:1050500018c2bf000018a300010032001822a900e6
:10506000f0f32f001822b600226cef00801f7800aa
:1050700022ccbf0023ecb7004f007800f80c2000d2
:10508000ffec070008017800d17d2f0000b02d0053
:1050900001ed0700f0f32f000e22b6008044eb0074
:1050a0000bed07000004e0000a0032000bed0700e2
:1050b00000447800fb4f50002f0032008044eb008a
:1050c0000fed07000004e000fdff3a000880fb0040
:1050d0000fed070016ed07000004e0001d003a0088
:1050e0000060fe00eeff37008f20a9008f00a900ae
:1050f000edec070072062000d17d2f0000f02d009e
:10510000efec070018c2bf000018a3006e003a00c1
:10511000f0f32f001822b600226cef00801f7800f9
:1051200022ccbf0023ecb7004f00780078062000a7
:10513000d3ec070008017800d17d2f0000b02d00ce
:10514000d5ec0700f0f32f000e22b6008044eb00f0
:10515000d3ff3700f9ec07000044780000ed0700aa
:105160000004e000fdff3a000880fb0000ed0700ae
:105170000060fe00caff37008944e800e2cf540017
:10518000cfff3600d46bef00c9c2bf004300de0082
:10519000e1006000c9c2bf000048a3000100320066
:1051a0000114a000e0c2bf000068a3004300320069
:1051b000706bef000180fb00d5ebb7007806200094
:1051c000e34f50000700320038032000e24f500048
:1051d0000400320098012000e14f5000010032002d
:1051e000080120008d40a9008d20a900a4ec070033
:1051f00008017800d17d2f0000b02d00a6ec07003b
:105200000ec2bf000018a300010032000e22a90048
:10521000f8f32f000004fd000e22b6000004fd008c
:105220002c6cef008d20a8001d4ce2002100320004
:105230008f20a9008720a9002f6cef0051bc20000f
:1052400091407800e6cf50002c00320010c0b3002f
:1052500080ebb700246cef00e2cf50002200320058
:10526000e6cf5000200032008f20a9008f00a90057
:105270008dec0700f20c2000d17d2f0000f02d00f6
:105280008fec070018c2bf000018a3000100320015
:105290001822a9000004fd001822b6000004fd0039
:1052a000226cef0022ccbf0023ecb7008f00a800d7
:1052b0000060fe004f04be000000060010c0b300f6
:1052c00070ebb700bbff37001822a900f0f32f00e6
:1052d0001822b600226cef0022ccbf0023ecb700ee
:1052e0007806200092ff37008f20a9008f00a900c8
:1052f0006dec070072062000dfff370010c0b3001e
:105300007cebb700d1ff3700889fbe008a1f780072
:10531000c1e920009140780040c5b30080cf500023
:105320008300320040c4b30080cf5000c000320080
:1053300020c5b30080cf50006a00320040c7b300e0
:1053400080cf50006c00320090c6b30080cf500078
:10535000de00320010c6b30080cf50006d00320076
:1053600030c7b30080cf5000df00320030c5b3003b
:1053700080cf5000ea00320080c7b30080cf5000d9
:10538000ed00320030c4b30080cf5000f70032008f
:1053900070c6b30080cf5000da00320070c4b30092
:1053a00080cf5000eb00320050c4b30080cf5000db
:1053b0001c01320020c6b30080cf5000f400320040
:1053c00000c5b30080cf5000f600320000c7b30024
:1053d00080cf50001701320040c6b30080cf50008c
:1053e0003d003a00c0e92000d1e920000400090096
:1053f00031587800c0e920009080fb009dcebf00ae
:105400004800dd0001017000e1e9200091407800d2
:105410008180fb009fcebf004800dd00810170004d
:105420000aea20001a4578008c60a90064628000b6
:1054300075628000e00f5100e08f59001b013500bc
:105440000404410085844900f0bf2500615220001a
:10545000800f5400818f5c000400360000402a0059
:1054600091ad2f00080440008984480068628800dc
:10547000796288000a04e000090032004206200038
:10548000030020000800be00dbeb070042c6b300ab
:10549000004151000200780021ecb7002d6cef00b4
:1054a000823e2000030020000800be00d2eb07006f
:1054b000823e200000015100026288008c60a8003a
:1054c0000a04e00002003200cc6bef00c96bef0071
:1054d00010c0b300d0ebb7004f0578004f04be00fa
:1054e000000006003a2cef004f0578004f04be0084
:1054f00000000600fbff370010c0b300ddebb70073
:10550000d26bef004f0578004f04be00000006008c
:10551000f4ff370010c0b3001fecb700d0ebb700aa
:105520004f0578004f04be0000000600edff370075
:10553000c0e92000d1e920000400090031587800ba
:10554000c0e920009080fb009dcebf004800dd0038
:1055500001027000e1e92000914078008180fb00a9
:105560009fcebf004800dd00810270000aea2000e3
:105570001a4578008c60a90060628000716280002a
:105580002262800033628000020050008380580055
:105590000404400085844800f0bf250061522000cb
:1055a000800f5400818f5c000400340000402a000a
:1055b00091ad2f000804400089844800686288008b
:1055c000796288000a04e0000900320042062000e7
:1055d000030020000800be0078eb070042c6b300bd
:1055e000004151000200780021ecb7002d6cef0063
:1055f000823e2000030020000800be006feb070081
:10560000823e200000015100026288008c60a800e8
:105610000a04e000b0ff3200cc6bef00c96bef0072
:105620004f0578004f04be0000000600adff3700b4
:10563000c0e92000d1e920000400090031587800b9
:105640008c60a90060628000716280008c60a8009c
:105650002462800035628000c0e920009080fb0059
:105660009dcebf004800dd0001017000e1e920008f
:10567000914078008180fb009fcebf004800dd0094
:10568000810170000202520083825a0004007800f7
:105690005cebb7004820de005debb700050078004a
:1056a0005eebb7004828de005febb700606bef00f1
:1056b000616bef0010c0b300dbebb7004f05780063
:1056c0004f04be000000060086ff370010c0b30084
:1056d000ddebb700d2ebb7004f0578004f04be00fa
:1056e000000006007fff370010c0b3001eecb700bb
:1056f000d0ebb7004f0578004f04be000000060055
:1057000078ff370010c0b3007cebb70080ebb70028
:105710004f0578004f04be000000060071ff3700ff
:1057200010c0b300d7ebb7004f0578004f04be00a0
:10573000000006006bff370010c0b300d8ebb700c5
:10574000d0ebb7004f0578004f04be000000060004
:1057500064ff370010c0b30080ebb7004f0578003e
:105760004f04be00000006005eff37001cfb070070
:105770000004e00058ff3a0010c0b300d8ebb700b7
:105780004f0578004f04be000000060055ff3700ab
:105790000000fe004f0578004f04be000000060028
:1057a00050ff3700754be2004bff3a0050bc200021
:1057b00061c0b30090cf10001100320010c0b300e0
:1057c00080ebb70074ebb70075ebb70030c0b300e7
:1057d000d1ebb700816bef00766bef007a6bef00d7
:1057e0007b6bef002e6cef0040ce2000c05b88008a
:1057f0004f0578004f04be000000060039ff370057
:1058000010c0b3007cebb70010c0b30080ebb70052
:1058100074ebb70075ebb70030c0b300d1ebb70045
:10582000ecff3700fdfd070010c0b300d8ebb70058
:10583000d3ff3700754be20027ff3200746bef0097
:10584000756bef00c5cbbf00e64f50001100320072
:10585000e14f50000a00360010c0b30080ebb700e3
:10586000816bef00766bef007a6bef007b6bef00e4
:105870002e6cef0040ce2000c05b8800dcff3700bc
:1058800010c0b30073ebb70010c0b30080ebb700db
:10589000f3ff370010c0b3007cebb70073ebb70029
:1058a00010c0b30080ebb700edff370060001100bf
:1058b000e0801900800f5200818f5a0007003100ec
:1058c000040150008581580000c02500615220006d
:1058d0000204500083845800e4fe370000045200a4
:1058e00081845a00e1fe3700889fbe008a9fbe0077
:1058f0008c9fbe008e1f780098f907008b802000d7
:10590000ce9c2000d84be200010032000000fe00d7
:105910000bfa070004f90700b1fa07000004e000e1
:10592000f8ff3200d84be200f6ff3a002d4ce200bf
:1059300001003200cd6bec002d4ce200feff320086
:105940002d6cef00c94be20035013a00cc4be20070
:1059500033013a00dc4be200c20132000b5f8800e9
:10596000e0812000f05e88008c60a9006062800009
:1059700071628000035f8000c04198004801de0032
:10598000d2419800e14198004808de00f0419800bb
:105990004062800051628000035f8000804998006f
:1059a0004801de0092499800a14998004808de00ad
:1059b000b04998008c60a800005f8000c2bb200046
:1059c0001241780032509800005f8000b1bb200087
:1059d0009140780041509800005f8000a2bb2000f9
:1059e0001241780052509800005f8000c1c0200032
:1059f0009140780041489800d2c0200012417800c0
:105a000052489800e1c02000914078006148980019
:105a1000f2c020001241780072489800005f8000b8
:105a2000e1bb20009140780021509800005f800089
:105a300022b720001241780012509800005f8000c9
:105a4000d1bc20009140780001509800005f800098
:105a500002c12000124178000248780011c12000e4
:105a6000914078001140980022c120001241780036
:105a70002240980031c120009140780031409800c8
:105a8000b2bc200012417800e14f5100c201360043
:105a9000ec2bef00ee2bef00f02bef00f22bef00e2
:105aa000f42bef00f62bef00f82bef00fa2bef00b2
:105ab000fc2bef00fe2bef00002cef00022cef0080
:105ac000042cef00062cef00082cef000a2cef004e
:105ad000cbcbbf00e14f5000d4003600c64be200f4
:105ae000190132000043eb0078bc20001844780014
:105af0003c5f8000ce4bed008043780069bc200005
:105b0000994478006022b800e1cf43001f003200c2
:105b100087417800cb02a800ff3ffc00d662a900b5
:105b20000000000000000000d662a8005220ef0034
:105b3000000000000000000000000000c3c2bf0021
:105b40000038a300fdff320000000000000000004c
:105b50000000000040168000f00fb200cb02a90048
:105b6000000000004800dd00421680000281fb00ba
:105b700002007000cf80de000402400085824800f1
:105b80008341e900e1cf4100e2ff3a008840e800ac
:105b9000014478000180fb000c007000b016880002
:105ba0000680fb004200dd00c2be20000200400073
:105bb0001008420050904a000643e80086cf540087
:105bc000d0ff3a0001007800c7ebb700c76bef00c9
:105bd000bc1688000060fe00cc4bec00ccebb7009c
:105be000b1bc2000914078000104e1001f003900a1
:105bf000cc6bef00e1cf500016003600c64be20040
:105c0000140032000045eb00f95e80004c5f80001c
:105c10005d5f80000a84fb004244dd00c0be2000be
:105c2000000444000c01be001800be00f5e90700a6
:105c3000801c780089007800000ceb003814780094
:105c40000a45e8000a407800c64be300f1ff3a003d
:105c5000f15e8800c94bec00c9ebb70081bc2000a5
:105c6000914078000104e100230031001d4ce20066
:105c700018003a00126280000200e00008003a00ba
:105c8000d74be200ca003a00db4be20048013a0081
:105c9000d94be20042013a00d04be2003c003a000e
:105ca000264ce20031003a00254ce2001dff320094
:105cb000256cef00813b2b00c2e620000e0009009e
:105cc00031597800f100b10010c0b300d9ebb70032
