:020000040000fa
:080000000001040000000000f3
:020000040000fa
:100200000fef200080ff20000001880000000000a8
:10021000050007000c00070016190200000000008e
:100220000040da000000fe004440a900c04f20005a
:100230000000e0000300320000002000a001880060
:100240004440a80000000600a0c2210001002000d8
:100250001600370062004000e080480091018800ed
:100260009001ba0062004000e080480091018800df
:100270009002ba0062004000e08048000002eb00fb
:100280006028e10005003a008301e900070033001f
:10029000038009000059eb00040037006128e100e9
:1002a000010032000082eb00050007009101880088
:1002b0001001ba000200e000e6ff3a00000005006d
:1002c000910188008002780062004000e0804800d0
:1002d0003559ba008301e900080032002559ba00f7
:1002e0008301e900050032000400e000f4ff320061
:1002f00015d9ba008301e900f1ff3a0000000600b9
:10030000040037000204e00001003a00000005008c
:100310000000e80010417800814f5100f9ff3a00d9
:100320000000060080007800010037000000e800af
:100330001004e000fdff3a0001005000000006003c
:100340008001780002003700b15978000201e9000d
:100350000200e000fcff3a00000006008001780087
:100360000001780031407800005978000004e00076
:10037000fcff3a0003007800000006000b00370085
:100380001042780091417800834f520004003200ff
:100390000081eb0007003900120020000500370043
:1003a0000000e8008100e8000201e9000200e0002e
:1003b000f3ff3a0002007800000006008001780098
:1003c00002003700815978000201e9000200e000d4
:1003d000fcff3a0000000600811f78000100e000e9
:1003e00002003d0060001000e08018000300e00003
:1003f00002003d0060011100e081190005000700c6
:100400004f00e00002003b0060001000e080180098
:1004100000000600080007000400be0000000600ff
:10042000020ab900001bb9000200b80081004200b6
:1004300081004300000006006022b8000602200090
:100440000000d0008180d2000482d2008582d200d8
:100450000000a0000202520083825a000300310013
:100460000202420083824a000000a1000603e90064
:10047000f3ff3a00000006000de2a9008d20a9005c
:100480008d40a9008520a9008540a9000000060034
:10049000a21088006010880071108800000006001b
:1004a00017e2a9008f00a9008f20a9008700a900ea
:1004b0008720a90000000600f2108800b010880014
:1004c000c1108800000006000ec2bf00610060007d
:1004d000000006000cc2bf0066406000e64f5000fe
:1004e00002003a009010800000000600901080008a
:1004f000f00fb2000000060019c2bf000004a20005
:1005000061006000000006008000780016c2bf0095
:1005100066406000e64f500001003200f10fb2006b
:10052000d11088000000060018c2bf006100600002
:100530000000060016c2bf0066406000e64f500093
:1005400002003a00e010800000000600e010800089
:10055000f00fb200000006000fc2bf000004a200ae
:100560006100600000000600800078000cc2bf003f
:1005700066406000e64f500001003200f10fb2000b
:100580008110880000000600605280000080fb009f
:1005900000000600000178000040eb000100370079
:1005a000324068008100e900e18f4000fcff3a0022
:1005b0000080fb0000000600881f78000001780022
:1005c000010478000d003700000178000d003700ad
:1005d000c0c2b300924f100002003a000201e800ce
:1005e00006003700c10220000200780044ff070027
:1005f0000000e000f4ff32000001e8000804e90018
:10060000f3ff3a00020078004f0478000000060073
:100610008000780010419000c0c2b300804f5100ac
:1006200003003a0000cdb30011404000060037003f
:100630001100fb006a00b9000042b0000240400017
:1006400002cdb300024040000080fb000000060025
:100650009000fb006a09b90004c2b3008440410065
:100660001040900080c0400000cdb30000c04000aa
:100670000080fb0000000600d969ed008720a9007a
:10068000d04e8000b080fb00d1108800d04e880092
:100690008f20a800000006004c2aed008540a9002c
:1006a00080588000b080fb0081108800805888004e
:1006b0008d40a80000000600889fbe008a1f7800b9
:1006c000b1ff0700004578000004e000fcff3a009d
:1006d00060b1200021b120000300090031587800ea
:1006e000208320000fff07000040e8008084fb000b
:1006f0000900e8001aebb7004800de001bebb7006a
:10070000c0c4b3001cebb70000ccb3001debb700b6
:10071000e8b120000901780021832000080078005a
:1007200007ff0700e4804400a0b1200099ff070004
:1007300080747c00698044006052880060b12000b1
:1007400080588800d4ff07000a007800ffedb7004a
:100750004f0578004f04be0000000600881f780097
:1007600089ff0700004478000004e000fcff3a0025
:1007700060b1200021b12000030009003158780049
:1007800070c0b3001aebb700080078001bebb7008d
:1007900070c7b3001cebb70000ccb3001debb70073
:1007a000e0b12000c1822000050009003158780026
:1007b000a1002000a0b1200076ff070024ebb700c5
:1007c000f00020006052880060b12000805888004e
:1007d000b1ff070008007800f7edb7004f0478007c
:1007e0000000060060b1200021b1200003000900d4
:1007f0003158780050c0b3001aebb7001b6bef0004
:1008000030c4b3001cebb70000ccb3001debb70045
:10081000b5c8bf001eebb700284ae2000200320054
:100820000074a0001eebb70042cabf001febb70068
:10083000216bef00206bef0081002000a0b12000b1
:1008400054ff070022ebb700d00020006052880060
:1008500060b12000805888008fff37008000eb00d7
:10086000080037009265200003002000610151005c
:10087000e0815900e10f4100e08f4900fbff3a00a1
:100880008100e800808f5000f6ff3a00000006006b
:10089000c9c2bf000038a30002003200286aef007e
:1008a0000200370010c0b30028eab700912c2000e6
:1008b00091407800c9c2bf000080fb004200de000a
:1008c0000004a200614160000118a300030032008f
:1008d000610061000000d000000006001000200050
:1008e0000204e00001003200300020000000060099
:1008f0000000fe0000000600889fbe008d20a900b9
:100900008d40a90040012000d4ff0700d000200046
:100910008010880040062000d0ff07000ec2bf00f4
:100920000018a300030032000e22a90001003700c6
:10093000901080000ec2bf000008a300fcff3a0028
:10094000a80520008810880040062000c3ff07008b
:100950000ec2bf000008a3001700320090108000f4
:10096000884f500014003a00d900200089108800f8
:1009700040062000b9ff0700790454008810880061
:1009800040012000b5ff07004005200080108800ce
:1009900040012000b1ff07008810880040012000be
:1009a000aeff07008910880040012000abff070060
:1009b00011c0b300010037008040eb000ec2bf0041
:1009c0000018a300010032000e22a9008d20a8000b
:1009d0008d40a8000180fb004f04be00000006000f
:1009e000881f780050c0b3001eebb70010c0b300e2
:1009f0001febb70091c0b3000100780020ebb700f7
:100a000045cabf0021ebb7000052800022ebb700bf
:100a10004800de0023ebb70001cebf000080fb00e2
:100a200024ebb700256bef0060b1200022b120005d
:100a30000300090032587800010078001aebb70073
:100a40000044eb00080078001bebb70030c5b30092
:100a50001cebb70000ccb3001debb700c1002000b9
:100a6000a0b12000cbfe070026ebb700100120004c
:100a70006052880060b120008058880006ff07009f
:100a800008007800fdedb7004f0478000000060074
:100a9000881f780000dd200011dd2000040009001f
:100aa0003158780000dd20009080fb00d1cdbf00e0
:100ab0004800dd000102700021dd20009140780037
:100ac0008180fb00d3cdbf004800dd0081027000b3
:100ad00048dd2000184478008c60a900c0528000d6
:100ae000d152800082528000935280000200500058
:100af000838058000402400085824800f0ff2500f2
:100b0000d1832000800f5200818f5a0004003400ee
:100b100000002a00217c2f0004024000858248004a
:100b2000c4528800d55288000264200003002000cf
:100b30000400be0028fe07000264200000015100ee
:100b4000525388000804e00001003200466aef00ba
:100b50008c60a8004f04780000000600881f780011
:100b600000dd200011dd200004000900315878006c
:100b700000dd20009080fb00d1cdbf004800dd00eb
:100b80000101700021dd2000914078008180fb0090
:100b9000d3cdbf004800dd008101700048dd20009a
:100ba000184478008c60a900c4528000d55280009f
:100bb000e00f5100e08f59000f003d006000110070
:100bc000e0801900840f5000858f58000700360020
:100bd000040150008581580000002600d1832000c8
:100be00002005000838058001000370000005200bf
:100bf00081805a000d0037000201420083814a00c3
:100c0000c2528800d3528800f0ff2500d183200013
:100c1000800f5100818f59000600360000002a0025
:100c2000217c2f000200400083804800c0528800d1
:100c3000d15288000264200003002000c0528000ce
:100c4000d1528000f3fd0700026420000001510032
:100c5000525388000804e00001003200466aef00a9
:100c60008c60a8004f0478000000060000dd200022
:100c700011dd200004000900315878008c60a900c3
:100c80008c60a800825280009352800000dd20001a
:100c90009080fb00d1cdbf004800dd000102700054
:100ca00021dd2000914078008180fb00d3cdbf0082
:100cb0004800dd0081027000c0528000d1528000e7
:100cc00002005000838058000401510085815900c2
:100cd0000001fd002ce8b7000001fd004812de0015
:100ce0000002fd002de8b7000002fd008001fd00bc
:100cf0002ee8b7008001fd004819de000001fd006c
:100d00002fe8b7000001fd0030e8b7004800de0022
:100d100031e8b70010c0b300f7edb70000000600df
:100d200000dd200011dd20000300090031587800ab
:100d300000dd20009080fb00d1cdbf004800dd0029
:100d4000010070002041880021dd200091407800e2
:100d50008180fb00d3cdbf004800dd0001007000a2
:100d60001041880000000600881f780060b1200054
:100d700021b12000030009003158780020c0b300e1
:100d80001aebb7000044eb00080078001bebb7003b
:100d900010c6b3001cebb70000ccb3001debb700ce
:100da00060c0b3001eebb70051002000a0b12000ce
:100db000f8fd07001febb700a0002000605288007c
:100dc00060b120008058880033fe070008007800da
:100dd000f3edb7004f04780000000600889fbe00c6
:100de0008004780029cabf00f80320000700320001
:100df000f8012000e14f500004003200f80020000c
:100e0000e24f500001003200a80020008d40a900f0
:100e10008d20a90098fd070008017800d17d2f00e2
:100e200000f02d009afd07000ec2bf000018a300bd
:100e3000010032000e22a900f0f32f000e22b600ae
:100e40001a6aef000900e000010032008d20a800be
:100e50004f04be0000000600881f7800e0b12000ab
:100e6000018020001f0009003158780060b1200087
:100e700021b12000030009003158780010c2b300ee
:100e80001aebb7000044eb00080078001bebb7003a
:100e900020c7b3001cebb70000ccb3001debb700bc
:100ea00041022000a0b12000bafd07003eebb700d0
:100eb000900220006052880060b1200080588800b5
:100ec000f5fd070008007800f1edb7004f04780049
:100ed00000000600889fbe00a102200060a920003b
:100ee00007fd0700000478000000e00007003a005a
:100ef000d1b029002083200018fd070010c0b300e6
:100f0000ffedb700880178002900370080047800e1
:100f1000805ceb0060a9200002fd0700e10f50009b
:100f2000030036008040eb0062a920000300370078
:100f3000c1b1290019003700b2c068000000e90003
:100f4000e10f4000fcff3a000180fb004400de009e
:100f5000e94f5000020036007043b0000100370036
:100f60000043b0000881e8008001eb00994f500079
:100f70000f003a006fc06000e94f500002003600d9
:100f80007043b000010037000043b00013002000a0
:100f9000924f500006003200d1b229002083200079
:100fa000eefc070010c0b300ffedb7008001eb00be
:100fb000030078004f04be0000000600881f780080
:100fc00071fd0700004478000004e000fcff3a00d7
:100fd0000264200003002000e0528000f1528000f3
:100fe0000ffd07000004fd0003eeb7000004fd0044
:100ff0008c60a900c4528000d5528000a2528000ab
:10100000b352800002005000838058000f003b0064
:1010100060001000e0801800840f5000858f580099
:1010200007003600040150008581580000002600aa
:10103000d183200002005000838058001000370048
:101040000000520081805a000d003700000142006c
:1010500081814a00c2528800d3528800f0ff2500e7
:10106000d1832000800f5100818f59000600360087
:1010700000002a00217c2f000200400083804800ed
:10108000c0528800d1528800026420000300200072
:10109000c0528000d1528000defc070002642000b4
:1010a0000001510052538800f44de200020032006a
:1010b000f46def00466aef008c60a8004f047800e2
:1010c000000006000040eb00b7e8b700bee8b7003c
:1010d000bfe8b700c0e8b70050952000e0458800a1
:1010e00000000600128c2000b748e20001003a0020
:1010f000d294200020b1200003000900305978006c
:101100004200b100bfc8bf008081fb000300e800bf
:1011100080007800f10fb200414198004800de00e5
:101120005041980070c6b3006041980000ccb300f5
:1011300070419800bec8bf0001406800bee8b7001b
:10114000d240900001406800bee8b700e240900045
:1011500001406800bee8b700f2409000014068001e
:10116000bee8b7008300410080489800d24588005f
:10117000b748e20003003200b768ef005095200046
:101180000300370010c0b300b7e8b700908c200010
:10119000e0458800bf68ef00be68ef00b8c8bf0038
:1011a000030032000040e900b8e8b70002003a004e
:1011b00069c04100c0e8b70000000600881f780041
:1011c0007153800080538000810f5000470032002f
:1011d0008f00a90050a72000614478000100e800ba
:1011e00070538800ff0f5000010036006e2aef0098
:1011f0008f00a8000800780074eab700642aef00a6
:10120000b648e20014003200154ae20012003a002b
:10121000bf48ec0080407800bfe8b700e0c7b300eb
:1012200080cf500006003600c048e20003003200c4
:10123000a4ff070001b429001a003700a9ff070026
:10124000e045800008587800e045880008407800b4
:10125000bec8b600bee8b700ed4f54002300320010
:10126000915380000100e00009003a0040c2b30041
:10127000804f54001d003a00100020009053880059
:101280000800780095eab7000100780018003700e0
:1012900060072000808f500007003600722aef00a0
:1012a00081b52900208320002cfc070010c0b3006a
:1012b000ffedb7000d00370052a92000ea4f54009f
:1012c00007003a000040eb00807079000140e80020
:1012d00011eab700722aef00100020000400370066
:1012e000887079000100e800905388000000eb004e
:1012f0004f04780000000600889fbe0062002000b6
:1013000011b7290060a920001cfc07000000e000c4
:1013100018003a001b4ae2000a0032001beab7003c
:10132000c0a92000cafc070027eab700e0a92000f6
:10133000c7fc070026eab70000aa2000c4fc07008b
:1013400025eab7007100200050a920009afc070090
:10135000800078000000e000340032001040780087
:101360001ceab7000180e800a9fc070021eab700e9
:101370002c0037006200200081b7290060a92000fe
:10138000fefb0700800478000000e00027003a0020
:101390001b4ae2000a0032001beab700c0a9200085
:1013a000abfc070027eab700e0a92000a8fc070073
:1013b00026eab70000aa2000a5fc070025eab7002e
:1013c000a100200050a920007bfc07000004780049
:1013d0000000e00015003200c0c2b300984f1000ba
:1013e00006003a008004fd001deab7001feab700be
:1013f0001eeab7008004fd000900370008007800ed
:1014000093fc07001eeab7000880e80090fc070084
:101410001feab700640044008dfc07001deab70016
:10142000146aef0010002000010037000000eb00fc
:101430004f04be0000000600889fbe00154ae2006f
:101440003d003a0020cabf00030032000040e9001e
:1014500020eab700380037009efe07000004e000d5
:1014600035003200a4ff0700804078000004e0004f
:1014700013003a00b648e2002f003a00144aec008c
:1014800014eab700e24f50002b003600010078004c
:1014900014eab70018c0b3000004fd0015eab70055
:1014a00010eab7000004fd00f1b7290020832000f6
:1014b000aafb070008007800ffedb7001e00370008
:1014c00027cabf000080fb000100200002e12000cd
:1014d00003002000d2fb07000004be0026cabf00a4
:1014e0000080fb0001002000c20320000300200058
:1014f000cbfb0700080440008984480025cabf00d0
:101500000080fb00010020000800400089804800a6
:10151000e0528800f1528800034ee20006003200db
:10152000a0528000b1528000e00f5000e08f5800c0
:1015300001003200a1fe07004f04be0000000600bb
:10154000881f780040a4200021c0b30090cf100075
:101550000b003a0012cabf00b648e2000400320095
:101560000080fb000000400041e620002200370020
:101570000080fb0000004000c1e620001e00370094
:10158000b648e2000500320012cabf000080fb002e
:101590000000400041ea200017003700a1a220000f
:1015a000914078008180fb002bcabf004800dd001d
:1015b000810070000148a3000500320012cabf007c
:1015c0000080fb000000400041e920000a003700d5
:1015d00012cabf000138a300040032000080fb00e3
:1015e0000000400041e72000030037000080fb00be
:1015f0000000400041e82000e08078000100e000a9
:101600002c003200c89d20000800780053fb070022
:101610000800780043fb07000004e9008800780018
:10162000d09d2000dbfb070080417800d19d200089
:101630008100440001017800a0c2b3000059780085
:101640000380fb004400de008180e80074c3b30027
:10165000e94f500001003e0004c3b30004494000bc
:101660006fc061000101e800e94f5000030036003f
:1016700073c3b300834840000200370004c3b300c3
:1016800084484000d0c0b30000497800a0c0b30037
:10169000104198000040eb0020419800c09d2000c0
:1016a000d04e880066404400d9e9b700f2fb07003d
:1016b00011002000010078004f04780000000600af
:1016c000d949e2003a003a00134ae20038003a00f1
:1016d00040a4200021c0b30090cf100012003a00b7
:1016e00021538000007d2000808f500007003600cd
:1016f000642aef00f1b829002083200017fb0700bf
:1017000010c0b300ffedb7000700370040a720006e
:10171000a2c0b300904f110025003a00f004200051
:10172000808f50002200360050a1200011c0b3006d
:1017300090cf100010003a00126aef00b648e200a5
:10174000020032007eff070006003700104ae20068
:1017500004003200106aef0079ff070040c1b300b7
:1017600013eab70010c0b30012eab70020c0b300fc
:1017700015eab7000000060071ff070080407800fe
:101780000004e00006003a0050c0b30020eab700b1
:101790008000fd0015eab7008000fd0049fe37001b
:1017a000126aec00156aec0040c1b30013eab700fe
:1017b00000000600881f7800000478008f20a90030
:1017c0008f00a90036fb070040a4200021c0b30011
:1017d000f203200090cf100001003200f207200039
:1017e000d17d2f0000f02d0033fb070018c2bf0091
:1017f0000018a300010032001822a900f0f32f0006
:101800001822b6006e2aef00702aef000800e000f0
:10181000010032008f00a8004f047800000006008d
:101820008f20a9008720a900d969ef0040a42000db
:1018300021c0b30090cf100002003a0010c0b300e6
:1018400010eab70010c0b30015eab700722aef0023
:1018500010002000d7ff07000060fe000000060017
:10186000889fbe000000eb00d2ff070002fb0700cc
:1018700040a4200021c0b300f203200090cf10004c
:1018800001003200f2072000d17d2f0000f02d0072
:10189000fffa0700f0f32f000e22b6008044eb00a1
:1018a00009fb07000004e0000e00320009fb0700fe
:1018b00000447800fb4f5000020032008044eb00ef
:1018c000030037008944e800e2cf540011003e00d5
:1018d00009fb07000004e000fdff3a000880fb0060
:1018e00009fb070010fb07000004e00007003200be
:1018f00010fb07000044780017fb07000004e0001d
:10190000fdff3a000880fb0017fb07000060fe00a7
:10191000e3ff3700f66def00ddfb070029eab700b3
:10192000444ae20001003200bdff07004f04be0040
:1019300000000600809fbe00821f78006252800077
:101940000200e0000600320080588000b080fb00fa
:1019500081108800805888000200e9000d003700df
:10196000c0c8bf000d0032000080fb00605288003c
:10197000d1458000815888000001fd00c0e8b70013
:101980000001fd003181fb00821088008158880031
:101990000000e90060528800010037008d40a90076
:1019a0008540a9004f0178004f00be0000400600ae
:1019b000809fbe00821f7800929d20001241780017
:1019c0000204e00007003200d04e8000b080fb002f
:1019d000d1108800d04e88000240e900d9e9b70054
:1019e000010037008f20a9008720a9004f0178004f
:1019f0004f00be00004006003600f800809fbe0089
:101a0000829fbe00849fbe00869fbe00881f780014
:101a10000ec2bf000018a300740032000e22a900fd
:101a2000720037000ec2bf000018a3000100320090
:101a30000e22a9000ec2bf000028a300020032003f
:101a400090108000690037009310800003417800f7
:101a5000a1a12000914078000104e00009003a00b3
:101a6000e2cf510061003a0000dd2000706e880076
:101a70003e2aef000100780017eab70010c0b3005b
:101a80000f003700e1cf50002d003a0003407800ee
:101a900017cab60017eab700706e800003587800c6
:101aa000706e880030c4b30080cf510006003a0049
:101ab00040c1b30019eab70018eab70020c0b3006c
:101ac0001aeab7004900370040c5b30080cf510083
:101ad000030032007040500080cf51000a003a00ed
:101ae00070c0b30019eab70018eab70020c0b3000d
:101af0001aeab700c0528000d1528000805288009c
:101b0000915288003900370040c6b30080cf5100a1
:101b100002003a0070c0b300e6ff370060c5b300b2
:101b200080cf510002003a0060c0b300e1ff3700ef
:101b300020c0b30019eab70018eab700e0ff370089
:101b4000e2cf500029003a0090a1200090cf100071
:101b5000030036000340780017cab60017eab70042
:101b6000706e800003587800706e8800194aed008e
:101b70000044780019eab7001c003a00e34f510016
:101b800008003200e1b9290020832000f3f90700a2
:101b900010c0b300ffedb700080078001aeab700e4
:101ba0001200370018cabf000080fb000000e900e7
:101bb00001dd200060c07800174ae30007003a000a
:101bc000030078001aeab70010c0b300f9edb700bf
:101bd00008007800f8edb70004003700080078002e
:101be0001aeab70010c0b300f8edb7000ec2bf008c
:101bf0000008a3008bff3a008520a9004f0478005d
:101c00004f03be004f02be004f01be004f00be009a
:101c10003600f90000400600809fbe00821f780059
:101c200018c2bf000018a300140032001822a90037
:101c30001200370018c2bf000018a30001003200d4
:101c40001822a90018c2bf000028a3000200320019
:101c5000e01080000900370080538000e21080000f
:101c600051a7200002f078000000e80080538800af
:101c7000ff0f500001003600702aef0018c2bf00ad
:101c80000008a300ebff3a008700a9004f0178008d
:101c90004f00be0000400600809fbe00829fbe0035
:101ca000c0528000d152800061014000e0814800b4
:101cb000c2528800d3528800f0ff2500d183200053
:101cc000800f5100818f590002003600582aef0022
:101cd0005a2aef00fa4de2000c0032005153800006
:101ce0008100e9005153880004003a00415380000c
:101cf00051538800d642a8000400370030538000ba
:101d0000808f500001003100d642a900444ae20011
:101d100024003200fb4de2000f003200044ee200ce
:101d200009003200d5c2bf000008a300060032003f
:101d3000c2528000d3528000a2528800b352880061
:101d4000046eef000e003700d5c2bf000008a300ec
:101d500014003a0011003700044ee2000c0032007b
:101d6000d5c2bf006140600009003a00c252800045
:101d7000d3528000a2528800b352880004eeb7000c
:101d8000722aef0010c0b3001beab700050037004d
:101d9000d5c2bf000008a3000200320010c0b3008b
:101da00004eeb700314180008100e9003141880034
:101db00021003a002148e2000c00320001007800c6
:101dc00021e8b700104180000000e000040032006c
:101dd0004041880030418800114188000e003700e2
:101de00043418000334188000b00370010c0b3002e
:101df00021e8b700204180000000e000040032002c
:101e0000504188003041880021418800020037009d
:101e100050418000304188001182200091407800bc
:101e2000e1c06000c308dd00d6c2bf000034a100dd
:101e300001407000d6e2b700642aec008460a9007b
:101e40004f01be004f00be0000400600401680005b
:101e50008040eb00060eb6000100320011c0b30056
:101e60000104a2000180fb00000006004216800071
:101e70008041eb000080fb000000400061e020009a
:101e800001004000100161000100320013c0b300e6
:101e90000304a2000380fb000000060001003700dd
:101ea000000000000000e900e10f4000fcff3a00e4
:101eb00000000600889fbe000044780089002000d2
:101ec0000c0037000804e00002003d00d602a80024
:101ed00001003700d602a90050002000efff0700e4
:101ee000cb02a8000844440030002000ebff0700ac
:101ef000cb02a9008904e900e18f4400f1ff3a0018
:101f00004f04be00000006000400fa00e2bf9f007c
:101f1000f3bf9f00e7ff07007ff89700e5ff07008a
:101f20006ff89700e3ff07005ff89700e1ff0700f5
:101f30004ff89700dfff07000080fa00000006005e
:101f4000889fbe008a1f7800000578000044eb00df
:101f5000890020001000370008444400cb02a8008c
:101f600050002000cdff0700401680008a00450089
:101f700062e0200082804000110060000100320019
:101f80000804a00030002000c4ff0700cb02a90015
:101f900050002000c1ff07008904e900e18f4400e0
:101fa000edff3a000880fb004f0578004f04be00ab
:101fb00000000600889fbe008a1f78000005780098
:101fc000e304410001407800baff07004800200008
:101fd000030037000a007800d9ff0700805478001a
:101fe0000804e900e10f4400faff3a004f057800c9
:101ff0004f04be0000000600889fbe008a1f7800c4
:1020000080017800010278000244780067056400ce
:1020100069e1200003003700840f50000700320000
:10202000e78444009980fb00194090004800dd00df
:1020300001007000f8ff3a002b0037008380410058
:10204000e0e02000e1007800411688005000200008
:1020500092ff0700594090000080fb000000ea005a
:102060004f00de006101b900c311dd000200200055
:102070000884fb000848a30001003a000390a00078
:1020800030c0b300a0ff0700694090000080fb0053
:102090004700dd000838a30002003a008000780005
:1020a00002003700800078000160a0004b50dd0086
:1020b0000080700001002000c001dd00020020004f
:1020c000000171008181710050c0b3008eff0700d4
:1020d00000ef2100401688009980fb001940900015
:1020e0004800dd00010070004f0578004f04be007d
:1020f00000000600889fbe008a1f780045cabf0006
:102100000084fb001ac0b3008004eb000a40780092
:10211000424ab60009003200ee804400a0a220002e
:1021200061417800015280008041eb000900780095
:10213000b1ff07000804e900040032000a45450029
:102140008904e800e48f5400f0ff3a0000e0210029
:10215000401688005000200050ff070000ccb3005c
:1021600054ff07004f0578004f04be000000060032
:10217000881f780000c0eb004eff07000802200017
:102180000b003700cb02a8005000200043ff0700df
:10219000401680000000eb000000e800e40f500053
:1021a000fdff3a00cb02a900300020003bff0700f2
:1021b0000804e900e10f4400f2ff3a004f04780000
:1021c00000000600889fbe008a1f78000005780086
:1021d0000184e8000040eb0036ff070039002000d2
:1021e000030037000a00780055ff0700005478000c
:1021f0008904e900e18f4400faff3a000a00780000
:102200004fff0700384090000004e00002003d004e
:1022100049449800020037000040eb004044980019
:102220004f0578004f04be00000006001000fa00c1
:10223000889fbe0045cabf008084fb0002012000c9
:102240008000eb00748057005cf807000040eb0052
:1022500018ff07000802200016003700cb02a80074
:10226000500020000dff0700461680008002eb00a2
:1022700067e02000748257001400be000001400097
:1022800081814800028abe003700630002003200ec
:102290000200a000028abe008502e800640242003b
:1022a000e48f5200f4ff3a00cb02a9003000200076
:1022b000fafe07000804e900e10f4400e7ff3a00d6
:1022c00013c0b3000002eb00738157000340780095
:1022d000424ab6000e00320070588000800078003c
:1022e000a242900085587800715888009242900070
:1022f000854878008080e80071588800924878000e
:1023000063004000705888008904e900050032002d
:1023100083c141000402e80064014100e40f52005f
:10232000eaff3a00405280004a2ab4004f04be003f
:102330000080fa00000006008001780062e12000c1
:1023400004003700830f500001003a001000050020
:10235000670141009280fb00124090004800dd00c0
:1023600001007000f7ff3a000000060080017800cd
:1023700062e1200003003700830f500007003200a5
:10238000670141009280fb00124090004800dd0090
:1023900001007000f8ff3a00000006004240900083
:1023a0000080fb00000006000c00fa00889fbe00c1
:1023b0008a1f78000004780080004000e0e02000e0
:1023c000e10078004116880050002000b3fe0700ad
:1023d0003a002000460037000081eb008081eb00ce
:1023e00000c0eb00c8fe07000081eb008081eb001d
:1023f00000c0eb00c4fe07000081eb008081eb0011
:1024000000c0eb00c0fe0700e2ff2f00f3ff2f002b
:1024100000c0eb00bcfe0700400120000ff90700e0
:10242000020020000300220030c0b300b6fe070007
:102430004001200009f90700ea84570009017800eb
:10244000b1c0b30008007800dafe07004fb897006b
:1024500001002100010060006101b800c010dd0032
:10246000000020006011b800e00f5000e08f58001d
:102470001c00320030c0b300a3fe07000901780041
:10248000b1c0b30008007800cafe0700728157008f
:1024900091c0b30008007800c6fe07006e815700a7
:1024a000a1c0b30008007800c2fe07007fb097000b
:1024b0008fb89700e00f5000e08f580009003a00f5
:1024c0001fb99700afb9970000002000011020004d
:1024d000800f5100818f590002003a001100200046
:1024e000070037000060fe0020032000dbf8070033
:1024f0000a05e900e10f4500b7ff3a008000eb0054
:1025000000ef210040168800010078004f05780098
:102510004f04be000080fa0000000600889fbe0045
:102520008a1f7800426aef000005eb0019c0b30073
:102530000a047800080078009bff07000000e00014
:10254000040032000a05e80009407800424ab7005a
:1025500042eab70089c444000804e800e40f5400cc
:10256000f4ff3a000a0078004f0578004f04be00df
:1025700000000600889fbe008a9fbe0045cabf00bb
:102580000084fb001bc0b3000a8020008004eb0025
:102590000b407800424ab6000a0032000a01780077
:1025a00091c0b3000900780082fe07006401450075
:1025b000a1c0b300090078007efe07000804e9000e
:1025c000050032008bc54500680545008904e80018
:1025d000e48f5400eeff3a00f16def004f05be00ae
:1025e0004f04be00000006000400fa00889fbe00f1
:1025f0008a1f780000457800014478008084fb0041
:1026000089804400e0e02000e10078004116880065
:102610002003200091f807000840780025fe0700fd
:10262000a00020008df807000a4078000ffe070088
:102630000000e000fcff3200ea805700090078004b
:10264000e0fe070000ef2100401688004f057800eb
:102650004f04be000080fa0000000600889fbe0004
:102660008a1f780045cabf008084fb001ac0b300ef
:102670000004eb000a407800424ab600160032001f
:102680006e004400a1a2200060c1780013c0b30016
:10269000710020000800780057fe0700400120006c
:1026a0006ef8070011c8b30008407800ceff07009d
:1026b0004001200069f8070021c8b30008407800f5
:1026c000c9ff07004001200064f807000060fe0019
:1026d0008904e900040032000a4545000804e800c6
:1026e000e40f5400e3ff3a004f0578004f04be00aa
:1026f00000000600889fbe00a1e2a900a8a2ef008a
:102700000004eb0068168800601680000016880040
:10271000f0e020003016880000102000901688009d
:1027200000012000f016880000ef2100401688000c
:1027300008178800d722a90040a7a900685288007e
:1027400008088800f07f2100100888000421a900f3
:1027500095c0bf00f1c8b3000140600001c6b300de
:102760000140700095e0b7008460a90005e1a80071
:1027700042c0bf007f4060000140700042e0b700ef
:10278000582aef005a2aef0008007800faedb70047
:1027900010c0b30045eab70049062000095288007e
:1027a0000004fd0044eab700fbedb700feedb70002
:1027b0000004fd002003200028f807000004fd00ad
:1027c000f8edb700f9edb700fcedb70043eab7004c
:1027d00012eab7000004fd00594188004941880011
:1027e000394188000800780021e8b70028418800b6
:1027f000184188000004fd00b4e8b700b3e8b70052
:10280000b2e8b7000004fd00d662a9000004fd0094
:1028100020e8b70042eab70074eab700b8e8b700aa
:102820000004fd004f04be0000000600a0cab30073
:1028300012ebb70050c5b30013ebb70080c8b3006c
:1028400014ebb70040c4b30015ebb700026eef0005
:102850004c2aef001000200000538800622aef008d
:10286000542aef00562aef005c2aef005e2aef00a0
:1028700000c3b3001ceab700216aef00156aef003d
:10288000006420004053880050538800003220002c
:1028900030538800466aef004a2aef00f76def00d8
:1028a0006c2aef006e2aef00702aef00722aef0008
:1028b0001a6aef00d969ef00146aef00106aef009e
:1028c000036eef0050c0b30020eab700136aef00b8
:1028d000b668ef00f56def00f66def00f46def00f8
:1028e000f36def00ff6def00fd6def00f16def0098
:1028f000642aef003c2aef001b6aef001d6aef001c
:102900001e6aef001f6aef00eef90700fb4de200c0
:1029100004003200d5c2bf006140600007003200f1
:1029200005003700d5c2bf000008a3000200320036
:10293000046eef000200370010c0b30004eeb700d1
:102940008c60a8008d20a800444ae20001003200fb
:10295000b3fb0700000006000bf7070000417800fa
:102960000004e000fcff3a008520a9008540a90092
:102970008700a9008720a9008c60a900a0a22000e0
:1029800011dd2000110009003158780036cabf005f
:1029900045eab700518b200091407800814f5000ec
:1029a000050036000100780045eab70010c0b3000a
:1029b000b4e8b7000200370002007800b4e8b700be
:1029c00037cabf0044eab70021a320009140780035
:1029d0008180fb0033cabf004800dd0001017000a8
:1029e00041a32000914078008180fb0035cabf00e0
:1029f0004800dd0081017000c2528800d352880077
:102a00002acabf00610060000100320010c0b3009c
:102a1000fbedb700c1a22000914078008180fb004f
:102a20002dcabf004800dd00010070000052880080
:102a300041fe07000000e00004003a0010c0b300af
:102a4000b3e8b70020032000005288000052800045
:102a500046fe0700f2edb7000081fb000052800047
:102a6000110009000280d80001eeb70045cabf007e
:102a70000080fb006300b90040528800a1a2200042
:102a8000914078008180fb002bcabf004800dd0028
:102a9000810070000118a30002003200fa6def00ff
:102aa0000200370010c0b300faedb7006480600088
:102ab0000400320010c0b30020e8b70040a7a8000f
:102ac0000200370020e8b70040a7a900e1a22000db
:102ad000914078008180fb002fcabf004800dd00d4
:102ae000010070005041880001a32000914078004f
:102af0008180fb0031cabf004800dd00010070008a
:102b000040418800304188002168ef002428ef0010
:102b10002228ef00d662a90010c0b300fcedb70078
:102b2000fe6def0041ff3700889fbe008a9fbe0008
:102b30008c9fbe00f96def001a6aef00d642a90023
:102b4000d662a9004c2aef008c60a9008d20a80055
:102b50001ac0b3000046eb008c4678001b00200032
:102b60008b047800087721000100370008ee22006e
:102b70000060fe00a000200038f7070044f70700bf
:102b800091a22000914078000104e100030032008e
:102b900029eab7001000200090f80700f94de20084
:102ba00011003200f96def001a6aef0001dd20001c
:102bb0009140780020c6b30080cf500002003a0058
:102bc0004bf707000800370030c4b30080cf500037
:102bd00005003a0060ff07004f06be004f05be002b
:102be0004f04be00000006008b05e90002003a0019
:102bf000fcf607004b0620008904e90008003a00b3
:102c00000d04e00003003200d642a9008946780096
:102c100002003700d642a8001dc0b300a900200062
:102c20000a45e90009003a000c04e0000400320003
:102c3000d662a9002ac0b3000046eb0003003700ab
:102c4000d662a8002ac0b3001cc0b3000800e00090
:102c5000010032000804e900284ae200c4ff320003
:102c60004c0ae200c2ff3a000800e000c0ff3a0050
:102c700021f70700087721000004e000bcff3200c4
:102c8000baff370001dd20009140780040c5b30055
:102c900080cf500001003a007df7370040c4b300f8
:102ca00080cf500001003a00f0f7370040c7b30072
:102cb00080cf500004003a0010c0b30003eeb7000c
:102cc000f46def000000060090c6b30080cf500006
:102cd00004003a0010c0b30003eeb700f4edb700f3
:102ce0000000060040c6b30080cf500002003a004a
:102cf0009af707004d00370030c5b30080cf500071
:102d000003003a0010c0b300fdedb700000006005c
:102d100080c7b30080cf500002003a00436aef0042
:102d20001700370030c4b30080cf500003003a00d2
:102d300010c0b30043eab7001200370070c6b300fa
:102d400080cf500003003a0010c0b30010eab70073
:102d50000400370070c4b30080cf500004003a0074
:102d600010c0b30015eab700136aef0000000600b8
:102d700050c4b30080cf500004003a00b8fa0700f6
:102d800010c0b300feedb7000000060020c6b3007f
:102d900080cf500001003a00d5f6370000c5b300df
:102da00080cf50000e003a00b648e20033003a00ef
:102db00040a4200021c0b30090cf100002003a00d0
:102dc00010c0b30010eab70010c0b300b6e8b700f7
:102dd00015eab70030c0b300b8e8b7000e003700fe
:102de00000c7b30080cf50000c003a00b648e200a4
:102df0002200320040a4200021c0b30090cf100078
:102e000002003a0010c0b30010eab700b668ef0045
:102e100010c0b30015eab700aaf8370060c5b300c8
:102e200080cf500004003a00bdf7070010c0b30087
:102e3000f3edb7000000060020c7b30080cf5000bc
:102e400003003a00f06def0010c0b300050037003a
:102e500030c6b30080cf500004003a0010c0b30069
:102e6000f0edb700f1edb7000000060020c5b3009b
:102e700080cf500001003a003c2aef00000006001d
:102e8000b2c8bf00030032000040e900b2e8b7005a
:102e90000c003a0021bb2900b448e20004003a00cb
:102ea000f1bc2900b348e20001003a0071be2900dc
:102eb0002083200029f50700fff50700a0c0b3001c
:102ec000b2e8b700466aef004a2aef0000000600a9
:102ed000024ee20004003200e0b920007052880087
:102ee00080bb200003003700a0cb20007052880078
:102ef00040cd2000705888000002eb00545288003a
:102f00008c60a9007052800081a52000914078005b
:102f10004140980096a5200016437800564098003e
:102f2000a7a520009743780067409800b1a520002e
:102f300091407800714098007052800046a52000b2
:102f4000164378000648980057a52000974378005c
:102f50001748980061a5200091407800214898000a
:102f600076a5200016437800364898008c60a800ab
:102f700070528000f7a120009743780077509800a6
:102f800070528000e1a12000914078000158980023
:102f900070528000d6a12000164378001658980081
:102fa00070528000c7a520009743780047489800da
:102fb000d1a520009140780051489800e6a5200056
:102fc0001643780066489800f7a5200097437800dc
:102fd000774898007052800011a22000914078003c
:102fe0006150980070528000c6a1200016437800fe
:102ff000565098007352800006538000175380008b
:1030000061004300e0804b00804978004801de0009
:1030100092419800a14198004808de00b041980014
:103020007052800044509800705280000450980004
:103030001450980024509800345098000000060066
:10304000889fbe0050f50700804478000004e0002f
:10305000fcff3a00585280007b004400fe00440010
:10306000024ee2001400320062b9200023b12000b9
:1030700003000900335978009aebb7004800de00de
:103080009bebb70040c4b3009cebb70000ccb3008f
:103090009debb700a0b920003ef5070081bb2000e2
:1030a00000f4780060b9200080588800090078009a
:1030b00002eeb7001300370022cb200023b120001e
:1030c0000300090033597800b6ecb7004800de0071
:1030d000b7ecb70040c4b300b8ecb70000ccb30005
:1030e000b9ecb70060cb20002af5070041cd2000e5
:1030f00000f4780020cb20008058880010c0b30076
:1031000002eeb70030022000080040006052880044
:1031100061f50700466aef004a2aef00005380007d
:103120001153800061004000e08048000053880097
:10313000115388004f04be000000060013cabf00f0
:10314000020032000040e90013eab7001acabf00cb
:103150000c003200e34f50000a0032003e0aec003f
:10316000f0518800ee0f5000060036001a6aef009a
:1031700041bf29002083200078f4070010c0b3006d
:10318000ffedb700f84de20006003200f86def00e9
:1031900071c029002083200070f4070010c0b30024
:1031a000ffedb7002048e2000a003200e151800044
:1031b0008100e800e151880030382000808f500005
:1031c00004003600436aef0010c0b300feedb70004
:1031d00096fd0700000006000060fe00464ae2007f
:1031e00001003a003aff0700d722a8000ffc0700b1
:1031f000d722a900464aec0046eab70011e02000b9
:10320000914078000104e10007003900b348e20072
:1032100002003a00b448e2000100320018ff370013
:1032200087ff0700c5ff07000000060031fd07000b
:103230007efd0700b9fc0700b5e8b7000004e00018
:1032400007003a00c1c129002083200043f4070091
:1032500019f507004006200080f50700f4ff37004d
:10326000434ae20003003200436aef00bafd070060
:10327000010037002cfe0700f8fc07009dfb07004b
:10328000fe6def0031003700f0fa07000000e000ab
:1032900001003200d0ff0700f94de20005003200c6
:1032a000f96def003c2aef001a6aef0075fe070087
:1032b00026003700444ae20008003200bff707004a
:1032c0000004e000020032005bf807001f00370036
:1032d000154ae20001003200f9f807004c0ae2004a
:1032e0001a003a00f74de200020032001bf5070019
:1032f00016003700fd4de20002003200b8f507006d
:1033000012003700ff4de20002003200eaf407002d
:103310000e003700f34de2000200320092f6070083
:103320000a003700f14de2000800320090fb070070
:10333000f04de20002003200c8fc0700f06def0023
:103340008cfc07006bfb0700c3f60700fe4de20094
:08335000cdff3200b7ff37008a
:020000040000fa
:0200000401f009
:04000000e6ff000017
:020000040000fa
:0200000401f009
:04000400e37f000096
:020000040000fa
:0200000401f009
:04000800deff000017
:020000040000fa
:0200000401f009
:04001400ffff0000ea
:020000040000fa
:10000800aa1c0000aa1c0000aa1c0000aa1c0000d0
:10001800aa1c0000aa1c0000aa1c0000aa1c0000c0
:10002800aa1c0000aa1c0000aa1c00004c0e00001c
:10003800aa1c0000aa1c0000aa1c0000aa1c0000a0
:10004800aa1c0000fc0c00009a0c0000aa1c00006e
:10005800aa1c0000aa1c0000aa1c0000aa1c000080
:10006800aa1c0000aa1c0000aa1c0000aa1c000070
:10007800aa1c0000aa1c0000aa1c0000aa1c000060
:100088000c0e0000d80c0000aa1c0000aa1c0000de
:10009800aa1c0000aa1c0000aa1c0000aa1c000040
:1000a800aa1c0000aa1c0000aa1c0000aa1c000030
:1000b800aa1c0000aa1c0000aa1c0000aa1c000020
:1000c800aa1c0000aa1c0000aa1c0000aa1c000010
:1000d800aa1c0000aa1c0000aa1c0000aa1c000000
:1000e800aa1c0000aa1c0000aa1c0000aa1c0000f0
:0800f800aa1c0000aa1c000074
:020000040000fa
:10010800aa1c0000aa1c0000aa1c0000aa1c0000cf
:10011800aa1c0000aa1c0000aa1c0000aa1c0000bf
:10012800aa1c0000aa1c0000aa1c00004c0e00001b
:10013800aa1c0000aa1c0000aa1c0000aa1c00009f
:10014800aa1c0000fc0c00009a0c0000aa1c00006d
:10015800aa1c0000aa1c0000aa1c0000aa1c00007f
:10016800aa1c0000aa1c0000aa1c0000aa1c00006f
:10017800aa1c0000aa1c0000aa1c0000aa1c00005f
:100188000c0e0000d80c0000aa1c0000aa1c0000dd
:10019800aa1c0000aa1c0000aa1c0000aa1c00003f
:1001a800aa1c0000aa1c0000aa1c0000aa1c00002f
:1001b800aa1c0000aa1c0000aa1c0000aa1c00001f
:1001c800aa1c0000aa1c0000aa1c0000aa1c00000f
:1001d800aa1c0000aa1c0000aa1c0000aa1c0000ff
:1001e800aa1c0000aa1c0000aa1c0000aa1c0000ef
:0801f800aa1c0000aa1c000073
:020000040000fa
:10335800245000004d5400004b330000313300006e
:103368002c31000000240000504d0000544b000098
:1033780033300000312c00003200000024500000df
:103388004d5400004b330000313400002c30000055
:103398002c3100002c3000002c3100002c310000b2
:1033a8002c3100002c3000002c3000002c300000a4
:1033b8002c3000002c3000002c3000002c30000095
:1033c8002c3000002c3000002c3000002c30000085
:1033d80000240000504d0000544b00003331000021
:1033e800332c000030000000245000004d54000031
:1033f8004b330000303100002c3000000024000066
:10340800504d0000544b000033310000342c0000b4
:10341800302c0000312c0000302c0000312c000032
:10342800302c0000302c0000302c0000302c000024
:10343800302c0000302c0000302c0000302c000014
:10344800302c0000302c0000302c0000302c000004
:103458003000000024500000475200004d49000091
:103468002c2c00002c2c00002c2c00002c520000ce
:103478000024000050470000524d00004f2c00006f
:103488002c3200000024000050470000524d00007c
:103498004f2c00004750000047470000412c000017
:1034a8003100000024500000475200004d4f00003a
:1034b8002c470000505200004d4300002c31000002
:1034c8000024000050470000524d0000432c00002b
:1034d8002c2c00002c2c00002c2c00002c2c000084
:1034e8002c2c00002c3200002c3300002c00000093
:1034f80024500000475200004d430000312c0000ca
:103508002c2c00002c2c00002c2c00002c57000028
:103518002c2c00002c2c00002c0000002450000053
:10352800475200004d430000312c00002c2c0000b5
:103538002c2c00002c2c00002c4e00002c2c000001
:103548002c2c00002c0000002450000047520000e2
:103558004d4300002c3200002c34000030300000b5
:103568002c2c00002c2c00002c2c00002c2c0000f3
:103578002c3000002c3200002c3300002c310000cd
:103588000024000050470000524d00004331000065
:103598002c3100002c3100002c3100002c2c0000b4
:1035a8002c2c0000312c00004e2c00004e2c00006a
:1035b800322c000031000000245000004752000067
:1035c8004d4f00002c4700005047000053410000b9
:1035d8002c3100000024000050470000524d00002c
:1035e8004f2c00004750000047530000562c0000a5
:1035f8003100000024500000475200004d4f0000e9
:103608002c500000475200004d5400002c3100009f
:10361800004700005053000020450000727200006f
:103628006f720000204e00006f2000002a0000008a
:1036380047500000532000004c6500006e670000f2
:103648007468000020450000727200006f7200006c
:103658000047000050530000204300006865000048
:10366800636b0000737500006d2000004572000058
:10367800726f0000720000004750000053200000e5
:10368800536500006e640000204f0000766500005e
:10369800726600006c6f0000772000004572000021
:1036a800726f0000720000004750000053200000b5
:1036b800496e000070750000742000004f7600000d
:1036c80065720000666c00006f77000020450000fe
:1036d800727200006f72000000470000504700003f
:1036e800474100002c00000047500000524d0000e8
:1036f800432c0000004700005053000020500000f9
:1037080061720000736500002045000072720000bd
:103718006f720000005300004b4700002049000072
:103728006e6900007420000045720000726f00008e
:10373800720000004261000064200000496e000031
:10374800636f00006d6900006e6700002050000084
:10375800616300006b65000074000000436f0000a7
:103768006e66000069670000204500007272000064
:103778006f7200003a2000004e7500006d200000b6
:10378800436f00006e7600006572000074650000eb
:1037980072730000004300006f6e0000666900004d
:1037a8006720000045720000726f0000723a000046
:1037b80020570000726f00006e6700002053000061
:1037c80050530000004300006f6e0000666900005f
:1037d8006720000045720000726f00007200000050
:1037e800496e00007075000074200000436f0000ef
:1037f8006d6d000020540000696d0000656f0000c9
:1038080075740000004900006e70000075740000b7
:103818002043000068650000636b000073750000ba
:103828006d20000045720000726f000072000000f9
:103838004e6f0000204300006f6e000076650000a8
:0c38480072740000657200007300000044
:020000040000fa
:10385400060e0000aa0000000200000001000200a1
:10386400000400000800e0001ed01e00b01e70001e
:103874001e060000d60002000104070000d6000066
:10388400020004000f006b00000500000319000093
:103894004000050001021e00003600000a0002007c
:1038a40032002000000a0100013c00001b000a0055
:1038b40000016400001000000a01000078000e00fe
:1038c400000a000000c8000008000a00010c000003
:1038d400000000000000000000ac9900b799c2008d
:1038e40099000000ed99f80099039a0000002e0059
:1038f4009a2e9a003d9a47009a569a00659a7c003f
:103904009a0000002e9a2e009a3d9a00479a56007b
:103914009a659a00929a0000002e9a002e9a3d0011
:103924009a479a00569aa8009ac59a000000e000a7
:103934009ae09a00569aef009afe9a00000000005e
:10394400000800000606000000000000000000005f
:020000040000fa
:043954000000fe0071
:00000001FF
